{
  "_format": "hh-sol-artifact-1",
  "contractName": "AToken",
  "sourceName": "contracts/tokens/AToken.sol",
  "abi": [
    {
      "inputs": [
        {
          "internalType": "address",
          "name": "pool",
          "type": "address"
        },
        {
          "internalType": "address",
          "name": "underlyingAsset",
          "type": "address"
        },
        {
          "internalType": "uint8",
          "name": "decimals_",
          "type": "uint8"
        }
      ],
      "stateMutability": "nonpayable",
      "type": "constructor"
    },
    {
      "inputs": [
        {
          "internalType": "address",
          "name": "token",
          "type": "address"
        }
      ],
      "name": "SafeERC20FailedOperation",
      "type": "error"
    },
    {
      "inputs": [],
      "name": "POOL",
      "outputs": [
        {
          "internalType": "address",
          "name": "",
          "type": "address"
        }
      ],
      "stateMutability": "view",
      "type": "function"
    },
    {
      "inputs": [],
      "name": "UNDERLYING_ASSET",
      "outputs": [
        {
          "internalType": "address",
          "name": "",
          "type": "address"
        }
      ],
      "stateMutability": "view",
      "type": "function"
    },
    {
      "inputs": [
        {
          "internalType": "address",
          "name": "user",
          "type": "address"
        },
        {
          "internalType": "uint256",
          "name": "liquidityIndexRay",
          "type": "uint256"
        }
      ],
      "name": "balanceOfWithIndex",
      "outputs": [
        {
          "internalType": "uint256",
          "name": "",
          "type": "uint256"
        }
      ],
      "stateMutability": "view",
      "type": "function"
    },
    {
      "inputs": [
        {
          "internalType": "address",
          "name": "user",
          "type": "address"
        },
        {
          "internalType": "uint256",
          "name": "amount",
          "type": "uint256"
        },
        {
          "internalType": "uint256",
          "name": "liquidityIndexRay",
          "type": "uint256"
        }
      ],
      "name": "burn",
      "outputs": [
        {
          "internalType": "uint256",
          "name": "scaledAmount",
          "type": "uint256"
        }
      ],
      "stateMutability": "nonpayable",
      "type": "function"
    },
    {
      "inputs": [],
      "name": "decimals",
      "outputs": [
        {
          "internalType": "uint8",
          "name": "",
          "type": "uint8"
        }
      ],
      "stateMutability": "view",
      "type": "function"
    },
    {
      "inputs": [
        {
          "internalType": "address",
          "name": "user",
          "type": "address"
        },
        {
          "internalType": "uint256",
          "name": "amount",
          "type": "uint256"
        },
        {
          "internalType": "uint256",
          "name": "liquidityIndexRay",
          "type": "uint256"
        }
      ],
      "name": "mint",
      "outputs": [
        {
          "internalType": "uint256",
          "name": "scaledAmount",
          "type": "uint256"
        }
      ],
      "stateMutability": "nonpayable",
      "type": "function"
    },
    {
      "inputs": [
        {
          "internalType": "address",
          "name": "user",
          "type": "address"
        }
      ],
      "name": "scaledBalanceOf",
      "outputs": [
        {
          "internalType": "uint256",
          "name": "",
          "type": "uint256"
        }
      ],
      "stateMutability": "view",
      "type": "function"
    },
    {
      "inputs": [],
      "name": "scaledTotalSupply",
      "outputs": [
        {
          "internalType": "uint256",
          "name": "",
          "type": "uint256"
        }
      ],
      "stateMutability": "view",
      "type": "function"
    },
    {
      "inputs": [
        {
          "internalType": "uint256",
          "name": "liquidityIndexRay",
          "type": "uint256"
        }
      ],
      "name": "totalSupplyWithIndex",
      "outputs": [
        {
          "internalType": "uint256",
          "name": "",
          "type": "uint256"
        }
      ],
      "stateMutability": "view",
      "type": "function"
    },
    {
      "inputs": [
        {
          "internalType": "address",
          "name": "to",
          "type": "address"
        },
        {
          "internalType": "uint256",
          "name": "amount",
          "type": "uint256"
        }
      ],
      "name": "transferUnderlyingTo",
      "outputs": [],
      "stateMutability": "nonpayable",
      "type": "function"
    }
  ],
  "bytecode": "0x60e060405234801561001057600080fd5b50604051610b09380380610b0983398101604081905261002f91610140565b6001600160a01b0383166100765760405162461bcd60e51b8152602060048201526009602482015268504f4f4c5f5a45524f60b81b60448201526064015b60405180910390fd5b6001600160a01b0382166100be5760405162461bcd60e51b815260206004820152600f60248201526e554e4445524c59494e475f5a45524f60881b604482015260640161006d565b60128160ff1611156101065760405162461bcd60e51b81526020600482015260116024820152700888a86929a8298a6bea89e9ebe90928e9607b1b604482015260640161006d565b6001600160a01b03928316608052911660a05260ff1660c05261018d565b80516001600160a01b038116811461013b57600080fd5b919050565b60008060006060848603121561015557600080fd5b61015e84610124565b925061016c60208501610124565b9150604084015160ff8116811461018257600080fd5b809150509250925092565b60805160a05160c0516109326101d7600039600060f90152600081816101aa01526103bc01526000818161013d015281816101ec01528181610372015261043401526109326000f3fe608060405234801561001057600080fd5b506004361061009e5760003560e01c80638da78feb116100665780638da78feb14610177578063b1bf962d1461018a578063de9348b014610192578063e6025393146101a5578063f5298aca146101cc57600080fd5b8063156e29f6146100a35780631da24f3e146100c9578063313ce567146100f25780634efecaa5146101235780637535d24614610138575b600080fd5b6100b66100b13660046107f6565b6101df565b6040519081526020015b60405180910390f35b6100b66100d7366004610829565b6001600160a01b031660009081526020819052604090205490565b60405160ff7f00000000000000000000000000000000000000000000000000000000000000001681526020016100c0565b610136610131366004610844565b610367565b005b61015f7f000000000000000000000000000000000000000000000000000000000000000081565b6040516001600160a01b0390911681526020016100c0565b6100b661018536600461086e565b6103e7565b6001546100b6565b6100b66101a0366004610844565b6103fd565b61015f7f000000000000000000000000000000000000000000000000000000000000000081565b6100b66101da3660046107f6565b610427565b6000336001600160a01b037f000000000000000000000000000000000000000000000000000000000000000016146102325760405162461bcd60e51b815260040161022990610887565b60405180910390fd5b6001600160a01b0384166102745760405162461bcd60e51b8152602060048201526009602482015268555345525f5a45524f60b81b6044820152606401610229565b600083116102b55760405162461bcd60e51b815260206004820152600e60248201526d1253959053125117d05353d5539560921b6044820152606401610229565b6b033b2e3c9fd0803ce80000008210156103015760405162461bcd60e51b815260206004820152600d60248201526c494e4445585f544f4f5f4c4f5760981b6044820152606401610229565b61030b83836105ed565b905080600080866001600160a01b03166001600160a01b03168152602001908152602001600020600082825461034191906108c0565b92505081905550806001600082825461035a91906108c0565b9091555090949350505050565b336001600160a01b037f000000000000000000000000000000000000000000000000000000000000000016146103af5760405162461bcd60e51b815260040161022990610887565b6103e36001600160a01b037f0000000000000000000000000000000000000000000000000000000000000000168383610606565b5050565b6001546000906103f79083610640565b92915050565b6001600160a01b0382166000908152602081905260408120546104209083610640565b9392505050565b6000336001600160a01b037f000000000000000000000000000000000000000000000000000000000000000016146104715760405162461bcd60e51b815260040161022990610887565b6001600160a01b0384166104b35760405162461bcd60e51b8152602060048201526009602482015268555345525f5a45524f60b81b6044820152606401610229565b600083116104f45760405162461bcd60e51b815260206004820152600e60248201526d1253959053125117d05353d5539560921b6044820152606401610229565b6b033b2e3c9fd0803ce80000008210156105405760405162461bcd60e51b815260206004820152600d60248201526c494e4445585f544f4f5f4c4f5760981b6044820152606401610229565b61054a83836105ed565b6001600160a01b0385166000908152602081905260409020549091508111156105ac5760405162461bcd60e51b81526020600482015260146024820152734255524e5f455843454544535f42414c414e434560601b6044820152606401610229565b6001600160a01b038416600090815260208190526040812080548392906105d49084906108d3565b92505081905550806001600082825461035a91906108d3565b6000610420836b033b2e3c9fd0803ce800000084610655565b6106138383836001610774565b61063b57604051635274afe760e01b81526001600160a01b0384166004820152602401610229565b505050565b600061042083836b033b2e3c9fd0803ce80000005b6000816000036106955760405162461bcd60e51b815260206004820152600b60248201526a4449565f42595f5a45524f60a81b6044820152606401610229565b600080600019858709858702925082811083820303915050806000036106ce578382816106c4576106c46108e6565b0492505050610420565b80841161070c5760405162461bcd60e51b815260206004820152600c60248201526b444956204f564552464c4f5760a01b6044820152606401610229565b600084868809600260036001881981018916988990049182028318808302840302808302840302808302840302808302840302808302840302918202909203026000889003889004909101858311909403939093029303949094049190911702949350505050565b60405163a9059cbb60e01b60008181526001600160a01b038616600452602485905291602083604481808b5af1925060016000511483166107ce5783831516156107c1573d6000823e3d81fd5b6000873b113d1516831692505b60405250949350505050565b80356001600160a01b03811681146107f157600080fd5b919050565b60008060006060848603121561080b57600080fd5b610814846107da565b95602085013595506040909401359392505050565b60006020828403121561083b57600080fd5b610420826107da565b6000806040838503121561085757600080fd5b610860836107da565b946020939093013593505050565b60006020828403121561088057600080fd5b5035919050565b60208082526009908201526813d3931657d413d3d360ba1b604082015260600190565b634e487b7160e01b600052601160045260246000fd5b808201808211156103f7576103f76108aa565b818103818111156103f7576103f76108aa565b634e487b7160e01b600052601260045260246000fdfea26469706673582212207b23da81477f472f720240be5f1d84433f4e48743c4502e47be40dec6485d95b64736f6c63430008180033",
  "linkReferences": {},
  "deployedLinkReferences": {}
}