{
  "_format": "hh-sol-artifact-1",
  "contractName": "DefaultInterestRateStrategy",
  "sourceName": "contracts/interest/DefaultInterestRateStrategy.sol",
  "abi": [
    {
      "inputs": [
        {
          "internalType": "uint256",
          "name": "baseRateWad_",
          "type": "uint256"
        },
        {
          "internalType": "uint256",
          "name": "slope1Wad_",
          "type": "uint256"
        },
        {
          "internalType": "uint256",
          "name": "slope2Wad_",
          "type": "uint256"
        },
        {
          "internalType": "uint256",
          "name": "optimalUtilizationRay_",
          "type": "uint256"
        }
      ],
      "stateMutability": "nonpayable",
      "type": "constructor"
    },
    {
      "inputs": [],
      "name": "baseRateWad",
      "outputs": [
        {
          "internalType": "uint256",
          "name": "",
          "type": "uint256"
        }
      ],
      "stateMutability": "view",
      "type": "function"
    },
    {
      "inputs": [
        {
          "internalType": "uint256",
          "name": "availableLiquidity",
          "type": "uint256"
        },
        {
          "internalType": "uint256",
          "name": "totalDebt",
          "type": "uint256"
        },
        {
          "internalType": "uint16",
          "name": "reserveFactorBps",
          "type": "uint16"
        }
      ],
      "name": "calculateInterestRates",
      "outputs": [
        {
          "internalType": "uint256",
          "name": "liquidityRateRayPerSecond",
          "type": "uint256"
        },
        {
          "internalType": "uint256",
          "name": "borrowRateRayPerSecond",
          "type": "uint256"
        }
      ],
      "stateMutability": "view",
      "type": "function"
    },
    {
      "inputs": [],
      "name": "optimalUtilizationRay",
      "outputs": [
        {
          "internalType": "uint256",
          "name": "",
          "type": "uint256"
        }
      ],
      "stateMutability": "view",
      "type": "function"
    },
    {
      "inputs": [],
      "name": "slope1Wad",
      "outputs": [
        {
          "internalType": "uint256",
          "name": "",
          "type": "uint256"
        }
      ],
      "stateMutability": "view",
      "type": "function"
    },
    {
      "inputs": [],
      "name": "slope2Wad",
      "outputs": [
        {
          "internalType": "uint256",
          "name": "",
          "type": "uint256"
        }
      ],
      "stateMutability": "view",
      "type": "function"
    }
  ],
  "bytecode": "0x61010060405234801561001157600080fd5b506040516107ab3803806107ab833981016040819052610030916100b2565b60008111801561004b57506b033b2e3c9fd0803ce800000081105b61009b5760405162461bcd60e51b815260206004820152601760248201527f4241445f4f5054494d414c5f5554494c495a4154494f4e000000000000000000604482015260640160405180910390fd5b60809390935260a09190915260c05260e0526100e8565b600080600080608085870312156100c857600080fd5b505082516020840151604085015160609095015191969095509092509050565b60805160a05160c05160e05161064e61015d6000396000818160c30152818161022901528181610275015281816102ca01526102fb015260008181610111015261033301526000818160ea01528181610253015261036a015260008181608e0152818161029f015261038b015261064e6000f3fe608060405234801561001057600080fd5b50600436106100575760003560e01c80633d3780441461005c57806343c8fc98146100895780637271a3e1146100be5780637b5d8411146100e55780638ef1d00f1461010c575b600080fd5b61006f61006a366004610542565b610133565b604080519283526020830191909152015b60405180910390f35b6100b07f000000000000000000000000000000000000000000000000000000000000000081565b604051908152602001610080565b6100b07f000000000000000000000000000000000000000000000000000000000000000081565b6100b07f000000000000000000000000000000000000000000000000000000000000000081565b6100b07f000000000000000000000000000000000000000000000000000000000000000081565b6000806127108361ffff1611156101865760405162461bcd60e51b81526020600482015260126024820152712120a22fa922a9a2a92b22afa320a1aa27a960711b60448201526064015b60405180910390fd5b600061019286866101f6565b9050600061019f82610225565b905060006101d36101b287612710610598565b61ffff166101cd84866b033b2e3c9fd0803ce80000006103c1565b906104e7565b90506101de826104f6565b93506101e9816104f6565b9450505050935093915050565b6000816000036102085750600061021f565b61021c61021583856105ba565b8390610529565b90505b92915050565b60007f000000000000000000000000000000000000000000000000000000000000000082116102c3576102997f0000000000000000000000000000000000000000000000000000000000000000837f00000000000000000000000000000000000000000000000000000000000000006103c1565b61021f907f00000000000000000000000000000000000000000000000000000000000000006105ba565b60006102ef7f0000000000000000000000000000000000000000000000000000000000000000846105cd565b9050600061032c6102157f00000000000000000000000000000000000000000000000000000000000000006b033b2e3c9fd0803ce80000006105cd565b90506103657f0000000000000000000000000000000000000000000000000000000000000000826b033b2e3c9fd0803ce80000006103c1565b6103af7f00000000000000000000000000000000000000000000000000000000000000007f00000000000000000000000000000000000000000000000000000000000000006105ba565b6103b991906105ba565b949350505050565b6000816000036104015760405162461bcd60e51b815260206004820152600b60248201526a4449565f42595f5a45524f60a81b604482015260640161017d565b6000806000198587098587029250828110838203039150508060000361043a57838281610430576104306105e0565b04925050506104e0565b8084116104785760405162461bcd60e51b815260206004820152600c60248201526b444956204f564552464c4f5760a01b604482015260640161017d565b600084868809851960019081018716968790049682860381900495909211909303600082900391909104909201919091029190911760038402600290811880860282030280860282030280860282030280860282030280860282030280860290910302029150505b9392505050565b600061021c83836127106103c1565b60006301e133808161051d846b033b2e3c9fd0803ce8000000670de0b6b3a76400006103c1565b90506103b982826105f6565b600061021c836b033b2e3c9fd0803ce8000000846103c1565b60008060006060848603121561055757600080fd5b8335925060208401359150604084013561ffff8116811461057757600080fd5b809150509250925092565b634e487b7160e01b600052601160045260246000fd5b61ffff8281168282160390808211156105b3576105b3610582565b5092915050565b8082018082111561021f5761021f610582565b8181038181111561021f5761021f610582565b634e487b7160e01b600052601260045260246000fd5b60008261061357634e487b7160e01b600052601260045260246000fd5b50049056fea264697066735822122048223a7c7872053317eb7f04e0a044d2948a29d4429e018a5afcb50b2549b4ef64736f6c63430008180033",
  "linkReferences": {},
  "deployedLinkReferences": {}
}