{
  "_format": "hh-sol-artifact-1",
  "contractName": "LendingPool",
  "sourceName": "contracts/core/LendingPool.sol",
  "abi": [
    {
      "inputs": [
        {
          "internalType": "address",
          "name": "oracle",
          "type": "address"
        },
        {
          "internalType": "address",
          "name": "owner_",
          "type": "address"
        }
      ],
      "stateMutability": "nonpayable",
      "type": "constructor"
    },
    {
      "inputs": [
        {
          "internalType": "address",
          "name": "owner",
          "type": "address"
        }
      ],
      "name": "OwnableInvalidOwner",
      "type": "error"
    },
    {
      "inputs": [
        {
          "internalType": "address",
          "name": "account",
          "type": "address"
        }
      ],
      "name": "OwnableUnauthorizedAccount",
      "type": "error"
    },
    {
      "inputs": [
        {
          "internalType": "address",
          "name": "token",
          "type": "address"
        }
      ],
      "name": "SafeERC20FailedOperation",
      "type": "error"
    },
    {
      "anonymous": false,
      "inputs": [
        {
          "indexed": true,
          "internalType": "address",
          "name": "user",
          "type": "address"
        },
        {
          "indexed": true,
          "internalType": "address",
          "name": "asset",
          "type": "address"
        },
        {
          "indexed": false,
          "internalType": "uint256",
          "name": "amount",
          "type": "uint256"
        }
      ],
      "name": "Borrow",
      "type": "event"
    },
    {
      "anonymous": false,
      "inputs": [
        {
          "indexed": true,
          "internalType": "address",
          "name": "user",
          "type": "address"
        },
        {
          "indexed": true,
          "internalType": "address",
          "name": "asset",
          "type": "address"
        },
        {
          "indexed": false,
          "internalType": "uint256",
          "name": "amount",
          "type": "uint256"
        }
      ],
      "name": "Deposit",
      "type": "event"
    },
    {
      "anonymous": false,
      "inputs": [
        {
          "indexed": true,
          "internalType": "address",
          "name": "liquidator",
          "type": "address"
        },
        {
          "indexed": true,
          "internalType": "address",
          "name": "user",
          "type": "address"
        },
        {
          "indexed": true,
          "internalType": "address",
          "name": "collateralAsset",
          "type": "address"
        },
        {
          "indexed": false,
          "internalType": "address",
          "name": "debtAsset",
          "type": "address"
        },
        {
          "indexed": false,
          "internalType": "uint256",
          "name": "debtCovered",
          "type": "uint256"
        },
        {
          "indexed": false,
          "internalType": "uint256",
          "name": "collateralSeized",
          "type": "uint256"
        }
      ],
      "name": "Liquidation",
      "type": "event"
    },
    {
      "anonymous": false,
      "inputs": [
        {
          "indexed": true,
          "internalType": "address",
          "name": "previousOwner",
          "type": "address"
        },
        {
          "indexed": true,
          "internalType": "address",
          "name": "newOwner",
          "type": "address"
        }
      ],
      "name": "OwnershipTransferred",
      "type": "event"
    },
    {
      "anonymous": false,
      "inputs": [
        {
          "indexed": true,
          "internalType": "address",
          "name": "user",
          "type": "address"
        },
        {
          "indexed": true,
          "internalType": "address",
          "name": "asset",
          "type": "address"
        },
        {
          "indexed": false,
          "internalType": "uint256",
          "name": "amount",
          "type": "uint256"
        }
      ],
      "name": "Repay",
      "type": "event"
    },
    {
      "anonymous": false,
      "inputs": [
        {
          "indexed": true,
          "internalType": "address",
          "name": "asset",
          "type": "address"
        },
        {
          "indexed": true,
          "internalType": "address",
          "name": "aToken",
          "type": "address"
        },
        {
          "indexed": true,
          "internalType": "address",
          "name": "debtToken",
          "type": "address"
        },
        {
          "indexed": false,
          "internalType": "address",
          "name": "interestRateStrategy",
          "type": "address"
        }
      ],
      "name": "ReserveInitialized",
      "type": "event"
    },
    {
      "anonymous": false,
      "inputs": [
        {
          "indexed": true,
          "internalType": "address",
          "name": "asset",
          "type": "address"
        },
        {
          "indexed": false,
          "internalType": "uint256",
          "name": "liquidityIndexRay",
          "type": "uint256"
        },
        {
          "indexed": false,
          "internalType": "uint256",
          "name": "borrowIndexRay",
          "type": "uint256"
        },
        {
          "indexed": false,
          "internalType": "uint256",
          "name": "liquidityRateRayPerSecond",
          "type": "uint256"
        },
        {
          "indexed": false,
          "internalType": "uint256",
          "name": "borrowRateRayPerSecond",
          "type": "uint256"
        },
        {
          "indexed": false,
          "internalType": "uint40",
          "name": "timestamp",
          "type": "uint40"
        }
      ],
      "name": "ReserveUpdated",
      "type": "event"
    },
    {
      "anonymous": false,
      "inputs": [
        {
          "indexed": true,
          "internalType": "address",
          "name": "user",
          "type": "address"
        },
        {
          "indexed": true,
          "internalType": "address",
          "name": "asset",
          "type": "address"
        },
        {
          "indexed": false,
          "internalType": "uint256",
          "name": "amount",
          "type": "uint256"
        }
      ],
      "name": "Withdraw",
      "type": "event"
    },
    {
      "inputs": [
        {
          "internalType": "address",
          "name": "asset",
          "type": "address"
        },
        {
          "internalType": "uint256",
          "name": "amount",
          "type": "uint256"
        }
      ],
      "name": "borrow",
      "outputs": [],
      "stateMutability": "nonpayable",
      "type": "function"
    },
    {
      "inputs": [
        {
          "internalType": "address",
          "name": "asset",
          "type": "address"
        },
        {
          "internalType": "uint256",
          "name": "amount",
          "type": "uint256"
        }
      ],
      "name": "deposit",
      "outputs": [],
      "stateMutability": "nonpayable",
      "type": "function"
    },
    {
      "inputs": [
        {
          "internalType": "address",
          "name": "user",
          "type": "address"
        }
      ],
      "name": "getHealthFactor",
      "outputs": [
        {
          "internalType": "uint256",
          "name": "",
          "type": "uint256"
        }
      ],
      "stateMutability": "view",
      "type": "function"
    },
    {
      "inputs": [
        {
          "internalType": "uint256",
          "name": "index",
          "type": "uint256"
        }
      ],
      "name": "getReserveAt",
      "outputs": [
        {
          "internalType": "address",
          "name": "",
          "type": "address"
        }
      ],
      "stateMutability": "view",
      "type": "function"
    },
    {
      "inputs": [],
      "name": "getReserveCount",
      "outputs": [
        {
          "internalType": "uint256",
          "name": "",
          "type": "uint256"
        }
      ],
      "stateMutability": "view",
      "type": "function"
    },
    {
      "inputs": [
        {
          "internalType": "address",
          "name": "asset",
          "type": "address"
        }
      ],
      "name": "getReserveData",
      "outputs": [
        {
          "internalType": "address",
          "name": "aToken",
          "type": "address"
        },
        {
          "internalType": "address",
          "name": "debtToken",
          "type": "address"
        },
        {
          "internalType": "uint8",
          "name": "assetDecimals",
          "type": "uint8"
        },
        {
          "internalType": "bool",
          "name": "isActive",
          "type": "bool"
        },
        {
          "internalType": "bool",
          "name": "isFrozen",
          "type": "bool"
        },
        {
          "internalType": "uint16",
          "name": "ltvBps",
          "type": "uint16"
        },
        {
          "internalType": "uint16",
          "name": "liquidationThresholdBps",
          "type": "uint16"
        },
        {
          "internalType": "uint16",
          "name": "liquidationBonusBps",
          "type": "uint16"
        },
        {
          "internalType": "uint16",
          "name": "reserveFactorBps",
          "type": "uint16"
        },
        {
          "internalType": "uint256",
          "name": "liquidityIndexRay",
          "type": "uint256"
        },
        {
          "internalType": "uint256",
          "name": "borrowIndexRay",
          "type": "uint256"
        },
        {
          "internalType": "uint40",
          "name": "lastUpdateTimestamp",
          "type": "uint40"
        }
      ],
      "stateMutability": "view",
      "type": "function"
    },
    {
      "inputs": [
        {
          "internalType": "address",
          "name": "asset",
          "type": "address"
        }
      ],
      "name": "getReserveInterestRateStrategy",
      "outputs": [
        {
          "internalType": "address",
          "name": "",
          "type": "address"
        }
      ],
      "stateMutability": "view",
      "type": "function"
    },
    {
      "inputs": [],
      "name": "getReserveList",
      "outputs": [
        {
          "internalType": "address[]",
          "name": "",
          "type": "address[]"
        }
      ],
      "stateMutability": "view",
      "type": "function"
    },
    {
      "inputs": [
        {
          "internalType": "address",
          "name": "asset",
          "type": "address"
        }
      ],
      "name": "getReserveRates",
      "outputs": [
        {
          "internalType": "uint256",
          "name": "liquidityRateRayPerSecond",
          "type": "uint256"
        },
        {
          "internalType": "uint256",
          "name": "borrowRateRayPerSecond",
          "type": "uint256"
        }
      ],
      "stateMutability": "view",
      "type": "function"
    },
    {
      "inputs": [
        {
          "internalType": "address",
          "name": "user",
          "type": "address"
        }
      ],
      "name": "getUserAccountData",
      "outputs": [
        {
          "internalType": "uint256",
          "name": "collateralUsdWad",
          "type": "uint256"
        },
        {
          "internalType": "uint256",
          "name": "debtUsdWad",
          "type": "uint256"
        },
        {
          "internalType": "uint256",
          "name": "maxBorrowUsdWad",
          "type": "uint256"
        },
        {
          "internalType": "uint256",
          "name": "healthFactorWad",
          "type": "uint256"
        }
      ],
      "stateMutability": "view",
      "type": "function"
    },
    {
      "inputs": [
        {
          "internalType": "address",
          "name": "user",
          "type": "address"
        },
        {
          "internalType": "address",
          "name": "asset",
          "type": "address"
        }
      ],
      "name": "getUserReserveData",
      "outputs": [
        {
          "internalType": "uint256",
          "name": "collateralAmount",
          "type": "uint256"
        },
        {
          "internalType": "uint256",
          "name": "debtAmount",
          "type": "uint256"
        },
        {
          "internalType": "uint256",
          "name": "collateralUsdWad",
          "type": "uint256"
        },
        {
          "internalType": "uint256",
          "name": "debtUsdWad",
          "type": "uint256"
        }
      ],
      "stateMutability": "view",
      "type": "function"
    },
    {
      "inputs": [
        {
          "internalType": "address",
          "name": "asset",
          "type": "address"
        },
        {
          "internalType": "address",
          "name": "aToken",
          "type": "address"
        },
        {
          "internalType": "address",
          "name": "debtToken",
          "type": "address"
        },
        {
          "internalType": "address",
          "name": "interestRateStrategy",
          "type": "address"
        },
        {
          "internalType": "uint8",
          "name": "assetDecimals",
          "type": "uint8"
        },
        {
          "internalType": "uint16",
          "name": "ltvBps",
          "type": "uint16"
        },
        {
          "internalType": "uint16",
          "name": "liquidationThresholdBps",
          "type": "uint16"
        },
        {
          "internalType": "uint16",
          "name": "liquidationBonusBps",
          "type": "uint16"
        },
        {
          "internalType": "uint16",
          "name": "reserveFactorBps",
          "type": "uint16"
        }
      ],
      "name": "initReserve",
      "outputs": [],
      "stateMutability": "nonpayable",
      "type": "function"
    },
    {
      "inputs": [
        {
          "internalType": "address",
          "name": "collateralAsset",
          "type": "address"
        },
        {
          "internalType": "address",
          "name": "debtAsset",
          "type": "address"
        },
        {
          "internalType": "address",
          "name": "user",
          "type": "address"
        },
        {
          "internalType": "uint256",
          "name": "debtToCover",
          "type": "uint256"
        }
      ],
      "name": "liquidate",
      "outputs": [],
      "stateMutability": "nonpayable",
      "type": "function"
    },
    {
      "inputs": [],
      "name": "owner",
      "outputs": [
        {
          "internalType": "address",
          "name": "",
          "type": "address"
        }
      ],
      "stateMutability": "view",
      "type": "function"
    },
    {
      "inputs": [],
      "name": "priceOracle",
      "outputs": [
        {
          "internalType": "contract IPriceOracle",
          "name": "",
          "type": "address"
        }
      ],
      "stateMutability": "view",
      "type": "function"
    },
    {
      "inputs": [],
      "name": "renounceOwnership",
      "outputs": [],
      "stateMutability": "nonpayable",
      "type": "function"
    },
    {
      "inputs": [
        {
          "internalType": "address",
          "name": "asset",
          "type": "address"
        },
        {
          "internalType": "uint256",
          "name": "amount",
          "type": "uint256"
        }
      ],
      "name": "repay",
      "outputs": [],
      "stateMutability": "nonpayable",
      "type": "function"
    },
    {
      "inputs": [
        {
          "internalType": "address",
          "name": "newOwner",
          "type": "address"
        }
      ],
      "name": "transferOwnership",
      "outputs": [],
      "stateMutability": "nonpayable",
      "type": "function"
    },
    {
      "inputs": [
        {
          "internalType": "address",
          "name": "asset",
          "type": "address"
        },
        {
          "internalType": "uint256",
          "name": "amount",
          "type": "uint256"
        }
      ],
      "name": "withdraw",
      "outputs": [],
      "stateMutability": "nonpayable",
      "type": "function"
    }
  ],
  "bytecode": "0x60a06040523480156200001157600080fd5b5060405162002fa838038062002fa8833981016040819052620000349162000137565b806001600160a01b0381166200006557604051631e4fbdf760e01b8152600060048201526024015b60405180910390fd5b6200007081620000ca565b506001600160a01b038216620000b75760405162461bcd60e51b815260206004820152600b60248201526a4f5241434c455f5a45524f60a81b60448201526064016200005c565b506001600160a01b03166080526200016f565b600080546001600160a01b038381166001600160a01b0319831681178455604051919092169283917f8be0079c531659141344cd1fd0a4f28419497f9722a3daafe3b4186f6b6457e09190a35050565b80516001600160a01b03811681146200013257600080fd5b919050565b600080604083850312156200014b57600080fd5b62000156836200011a565b915062000166602084016200011a565b90509250929050565b608051612e0f62000199600039600081816101a0015281816124f401526125650152612e0f6000f3fe608060405234801561001057600080fd5b50600436106101215760003560e01c8063715018a6116100ad578063b5e3165211610071578063b5e31652146102ac578063bf92857c146102f5578063f2fde38b14610308578063f3fef3a31461031b578063fe6bcd7c1461032e57600080fd5b8063715018a61461025b5780638da5cb5b146102635780639980654614610274578063aab3f86814610286578063acfaa9bf1461029957600080fd5b806328dd2d01116100f457806328dd2d01146101c257806335ea6a75146101f557806347e7ef24146102205780634b8a35291461023357806366d4c4131461024657600080fd5b80630268a66114610126578063107c04181461017357806322867d78146101865780632630c12f1461019b575b600080fd5b610156610134366004612876565b6001600160a01b03908116600090815260026020819052604090912001541690565b6040516001600160a01b0390911681526020015b60405180910390f35b610156610181366004612891565b610341565b6101996101943660046128aa565b610371565b005b6101567f000000000000000000000000000000000000000000000000000000000000000081565b6101d56101d03660046128d4565b6105df565b60408051948552602085019390935291830152606082015260800161016a565b610208610203366004612876565b610766565b60405161016a9c9b9a99989796959493929190612907565b61019961022e3660046128aa565b61084d565b6101996102413660046128aa565b610a4e565b61024e610dd0565b60405161016a9190612993565b610199610e32565b6000546001600160a01b0316610156565b6001545b60405190815260200161016a565b6101996102943660046129e0565b610e46565b6101996102a7366004612a4c565b611148565b6102e06102ba366004612876565b6001600160a01b0316600090815260026020526040902060058101546006909101549091565b6040805192835260208301919091520161016a565b6101d5610303366004612876565b6116d6565b610199610316366004612876565b611714565b6101996103293660046128aa565b611752565b61027861033c366004612876565b61199b565b60006001828154811061035657610356612af6565b6000918252602090912001546001600160a01b031692915050565b6000811161039a5760405162461bcd60e51b815260040161039190612b0c565b60405180910390fd5b6001600160a01b03808316600090815260026020526040902080549091166103d45760405162461bcd60e51b815260040161039190612b34565b6007810154600160281b900460ff166103ff5760405162461bcd60e51b815260040161039190612b5f565b610408836119d4565b6001810154600480830154604051630de9348b60e41b81526000936001600160a01b03169263de9348b09261043f92339201612b89565b602060405180830381865afa15801561045c573d6000803e3d6000fd5b505050506040513d601f19601f820116820180604052508101906104809190612ba2565b9050600081116104bc5760405162461bcd60e51b81526020600482015260076024820152661393d7d111509560ca1b6044820152606401610391565b6000818410156104cc57836104ce565b815b6001840154600480860154604051637a94c56560e11b81529394506000936001600160a01b039093169263f5298aca9261050c923392889201612bbb565b6020604051808303816000875af115801561052b573d6000803e3d6000fd5b505050506040513d601f19601f8201168201806040525081019061054f9190612ba2565b9050600081116105715760405162461bcd60e51b815260040161039190612bdc565b835461058c906001600160a01b038881169133911685611a58565b6105968685611a94565b6040518281526001600160a01b0387169033907f05f2eeda0e08e4b437f487c8d7d29b14537d15e3488170dc3de5dbdf8dac4684906020015b60405180910390a3505050505050565b6001600160a01b038082166000908152600260205260408120805491928392839283929091166106215760405162461bcd60e51b815260040161039190612b34565b600061062c82611c96565b9050600061063983611cd1565b8354604051630de9348b60e41b81529192506001600160a01b03169063de9348b09061066b908c908690600401612b89565b602060405180830381865afa158015610688573d6000803e3d6000fd5b505050506040513d601f19601f820116820180604052508101906106ac9190612ba2565b6001840154604051630de9348b60e41b81529198506001600160a01b03169063de9348b0906106e1908c908590600401612b89565b602060405180830381865afa1580156106fe573d6000803e3d6000fd5b505050506040513d601f19601f820116820180604052508101906107229190612ba2565b95506000871161073357600061073d565b61073d8888611d05565b94506000861161074e576000610758565b6107588887611d05565b935050505092959194509250565b6001600160a01b03808216600090815260026020819052604082208054600182015492820154600783015494958695869586958695869586958695869586958695869591949081169392169160ff600160a01b909204821691600160281b8204811691600160301b81049091169061ffff600160381b8204811691600160481b8104821691600160581b8204811691600160681b9004166108068a611c96565b61080f8b611cd1565b8b60070160009054906101000a900464ffffffffff169c509c509c509c509c509c509c509c509c509c509c509c505091939597999b5091939597999b565b6000811161086d5760405162461bcd60e51b815260040161039190612b0c565b6001600160a01b03808316600090815260026020526040902080549091166108a75760405162461bcd60e51b815260040161039190612b34565b6007810154600160281b900460ff166108d25760405162461bcd60e51b815260040161039190612b5f565b6007810154600160301b900460ff161561091f5760405162461bcd60e51b815260206004820152600e60248201526d2922a9a2a92b22afa32927ad22a760911b6044820152606401610391565b610928836119d4565b8054610943906001600160a01b038581169133911685611a58565b80546003820154604051630ab714fb60e11b81526000926001600160a01b03169163156e29f69161097b913391889190600401612bbb565b6020604051808303816000875af115801561099a573d6000803e3d6000fd5b505050506040513d601f19601f820116820180604052508101906109be9190612ba2565b9050600081116109fe5760405162461bcd60e51b815260206004820152600b60248201526a1352539517d1905253115160aa1b6044820152606401610391565b610a088483611a94565b6040518381526001600160a01b0385169033907f5548c837ab068cf56a2c2479df0882a4922fd203edb7517321831d95078c5f629060200160405180910390a350505050565b60008111610a6e5760405162461bcd60e51b815260040161039190612b0c565b6001600160a01b0380831660009081526002602052604090208054909116610aa85760405162461bcd60e51b815260040161039190612b34565b6007810154600160281b900460ff16610ad35760405162461bcd60e51b815260040161039190612b5f565b6007810154600160301b900460ff1615610b205760405162461bcd60e51b815260206004820152600e60248201526d2922a9a2a92b22afa32927ad22a760911b6044820152606401610391565b610b29836119d4565b80546040516370a0823160e01b81526001600160a01b0391821660048201526000918516906370a0823190602401602060405180830381865afa158015610b74573d6000803e3d6000fd5b505050506040513d601f19601f82011682018060405250810190610b989190612ba2565b905082811015610be35760405162461bcd60e51b8152602060048201526016602482015275494e53554646494349454e545f4c495155494449545960501b6044820152606401610391565b600080610bef33611d5f565b5092509250506000610c018787611d05565b905081610c0e8285612c17565b1115610c5c5760405162461bcd60e51b815260206004820152601760248201527f494e53554646494349454e545f434f4c4c41544552414c0000000000000000006044820152606401610391565b6001850154600480870154604051630ab714fb60e11b81526000936001600160a01b03169263156e29f692610c969233928d929101612bbb565b6020604051808303816000875af1158015610cb5573d6000803e3d6000fd5b505050506040513d601f19601f82011682018060405250810190610cd99190612ba2565b905060008111610d195760405162461bcd60e51b815260206004820152600b60248201526a1352539517d1905253115160aa1b6044820152606401610391565b8554604051634efecaa560e01b81526001600160a01b0390911690634efecaa590610d4a9033908b90600401612b89565b600060405180830381600087803b158015610d6457600080fd5b505af1158015610d78573d6000803e3d6000fd5b50505050610d868887611a94565b6040518781526001600160a01b0389169033907f312a5e5e1079f5dda4e95dbbd0b908b291fd5b992ef22073643ab691572c5b529060200160405180910390a35050505050505050565b60606001805480602002602001604051908101604052809291908181526020018280548015610e2857602002820191906000526020600020905b81546001600160a01b03168152600190910190602001808311610e0a575b5050505050905090565b610e3a611f79565b610e446000611fa6565b565b60008111610e665760405162461bcd60e51b815260040161039190612b0c565b6001600160a01b038216610ea85760405162461bcd60e51b8152602060048201526009602482015268555345525f5a45524f60b81b6044820152606401610391565b610eb3848484611ff6565b6001600160a01b03808516600090815260026020526040808220928616825281209080610ee48888888888886121cf565b9150915060008211610f085760405162461bcd60e51b815260040161039190612b0c565b8254610f23906001600160a01b038981169133911685611a58565b6001830154600480850154604051637a94c56560e11b81526000936001600160a01b03169263f5298aca92610f5d928c9289929101612bbb565b6020604051808303816000875af1158015610f7c573d6000803e3d6000fd5b505050506040513d601f19601f82011682018060405250810190610fa09190612ba2565b11610fbd5760405162461bcd60e51b815260040161039190612bdc565b83546003850154604051637a94c56560e11b81526000926001600160a01b03169163f5298aca91610ff5918b91879190600401612bbb565b6020604051808303816000875af1158015611014573d6000803e3d6000fd5b505050506040513d601f19601f820116820180604052508101906110389190612ba2565b116110555760405162461bcd60e51b815260040161039190612bdc565b8354604051634efecaa560e01b81526001600160a01b0390911690634efecaa5906110869033908590600401612b89565b600060405180830381600087803b1580156110a057600080fd5b505af11580156110b4573d6000803e3d6000fd5b505050506110c28784611a94565b876001600160a01b0316876001600160a01b0316146110e5576110e58885611a94565b876001600160a01b0316866001600160a01b0316336001600160a01b03167f64f7c2c46814e079964a1934953e50adc025dc52cdbeb7d8e478e9fb9bfd2c2d8a868660405161113693929190612bbb565b60405180910390a45050505050505050565b611150611f79565b6001600160a01b0389166111935760405162461bcd60e51b815260206004820152600a60248201526941535345545f5a45524f60b01b6044820152606401610391565b6001600160a01b0388166111d75760405162461bcd60e51b815260206004820152600b60248201526a41544f4b454e5f5a45524f60a81b6044820152606401610391565b6001600160a01b03871661121f5760405162461bcd60e51b815260206004820152600f60248201526e444542545f544f4b454e5f5a45524f60881b6044820152606401610391565b6001600160a01b0386166112655760405162461bcd60e51b815260206004820152600d60248201526c53545241544547595f5a45524f60981b6044820152606401610391565b60128560ff1611156112ad5760405162461bcd60e51b81526020600482015260116024820152700888a86929a8298a6bea89e9ebe90928e9607b1b6044820152606401610391565b6127108361ffff1611156112f75760405162461bcd60e51b815260206004820152601160248201527010905117d3125457d512149154d213d311607a1b6044820152606401610391565b8261ffff168461ffff1611156113395760405162461bcd60e51b81526020600482015260076024820152662120a22fa62a2b60c91b6044820152606401610391565b6127108261ffff16101561137f5760405162461bcd60e51b815260206004820152600d60248201526c4241445f4c49515f424f4e555360981b6044820152606401610391565b612ee08261ffff1611156113c55760405162461bcd60e51b815260206004820152600d60248201526c4241445f4c49515f424f4e555360981b6044820152606401610391565b6127108161ffff1611156114105760405162461bcd60e51b81526020600482015260126024820152712120a22fa922a9a2a92b22afa320a1aa27a960711b6044820152606401610391565b6001600160a01b03808a16600090815260026020526040902080549091161561146c5760405162461bcd60e51b815260206004820152600e60248201526d524553455256455f45584953545360901b6044820152606401610391565b888160000160006101000a8154816001600160a01b0302191690836001600160a01b03160217905550878160010160006101000a8154816001600160a01b0302191690836001600160a01b03160217905550868160020160006101000a8154816001600160a01b0302191690836001600160a01b03160217905550858160020160146101000a81548160ff021916908360ff1602179055506b033b2e3c9fd0803ce800000081600301819055506b033b2e3c9fd0803ce800000081600401819055506000816005018190555060008160060181905550428160070160006101000a81548164ffffffffff021916908364ffffffffff16021790555060018160070160056101000a81548160ff02191690831515021790555060008160070160066101000a81548160ff021916908315150217905550848160070160076101000a81548161ffff021916908361ffff160217905550838160070160096101000a81548161ffff021916908361ffff1602179055508281600701600b6101000a81548161ffff021916908361ffff1602179055508181600701600d6101000a81548161ffff021916908361ffff16021790555060018a9080600181540180825580915050600190039060005260206000200160009091909190916101000a8154816001600160a01b0302191690836001600160a01b03160217905550876001600160a01b0316896001600160a01b03168b6001600160a01b03167f2a069b08eadd1ba3aeb05729cf22947a941b9f400cfc778be430b52a946372828a6040516116c291906001600160a01b0391909116815260200190565b60405180910390a450505050505050505050565b60008060008060006116e786611d5f565b929750909550935090508315611706576117018185612397565b61170a565b6000195b9150509193509193565b61171c611f79565b6001600160a01b03811661174657604051631e4fbdf760e01b815260006004820152602401610391565b61174f81611fa6565b50565b600081116117725760405162461bcd60e51b815260040161039190612b0c565b6001600160a01b03808316600090815260026020526040902080549091166117ac5760405162461bcd60e51b815260040161039190612b34565b6007810154600160281b900460ff166117d75760405162461bcd60e51b815260040161039190612b5f565b6117e0836119d4565b80546003820154604051637a94c56560e11b81526000926001600160a01b03169163f5298aca91611818913391889190600401612bbb565b6020604051808303816000875af1158015611837573d6000803e3d6000fd5b505050506040513d601f19601f8201168201806040525081019061185b9190612ba2565b90506000811161187d5760405162461bcd60e51b815260040161039190612bdc565b60008061188933611d5f565b93505092505060008211156118f157670de0b6b3a76400006118ab8284612397565b10156118f15760405162461bcd60e51b81526020600482015260156024820152744845414c54485f464143544f525f544f4f5f4c4f5760581b6044820152606401610391565b8354604051634efecaa560e01b81526001600160a01b0390911690634efecaa5906119229033908990600401612b89565b600060405180830381600087803b15801561193c57600080fd5b505af1158015611950573d6000803e3d6000fd5b5050505061195e8685611a94565b6040518581526001600160a01b0387169033907f9b1bfa7fa9ee420a16e124f794c35ac9f90472acc99140eb2f6447c714cad8eb906020016105cf565b60008060006119a984611d5f565b935050925050816000036119c257506000199392505050565b6119cc8183612397565b949350505050565b6001600160a01b0381166000908152600260205260408120600781015490914291611a0a9064ffffffffff908116908416612c2a565b905080600003611a1a5750505050565b611a2383611c96565b6003840155611a3183611cd1565b6004840155506007909101805464ffffffffff191664ffffffffff90921691909117905550565b611a668484848460016123ac565b611a8e57604051635274afe760e01b81526001600160a01b0385166004820152602401610391565b50505050565b80546040516370a0823160e01b81526001600160a01b0391821660048201526000918416906370a0823190602401602060405180830381865afa158015611adf573d6000803e3d6000fd5b505050506040513d601f19601f82011682018060405250810190611b039190612ba2565b6001830154600480850154604051638da78feb60e01b8152918201529192506000916001600160a01b0390911690638da78feb90602401602060405180830381865afa158015611b57573d6000803e3d6000fd5b505050506040513d601f19601f82011682018060405250810190611b7b9190612ba2565b60028401546007850154604051630f4de01160e21b81526004810186905260248101849052600160681b90910461ffff16604482015291925060009182916001600160a01b031690633d378044906064016040805180830381865afa158015611be8573d6000803e3d6000fd5b505050506040513d601f19601f82011682018060405250810190611c0c9190612c3d565b60058701829055600687018190556003870154600488015460078901546040805193845260208401929092529082018490526060820183905264ffffffffff16608082015291935091506001600160a01b038716907f7f4d37ee745decda556a078e1cfd443d829c50710be5772bd9fb67e63e1317599060a00160405180910390a2505050505050565b60078101546000908190611cb59064ffffffffff908116904216612c2a565b9050611cca836003015484600501548361241e565b9392505050565b60078101546000908190611cf09064ffffffffff908116904216612c2a565b9050611cca836004015484600601548361241e565b6001600160a01b03821660009081526002602081905260408220908101548290611d3a908590600160a01b900460ff16612469565b90506000611d47866124d0565b9050611d538282612645565b93505050505b92915050565b600154600090819081908190815b81811015611f7057600060018281548110611d8a57611d8a612af6565b60009182526020808320909101546001600160a01b03908116808452600290925260408320805492945092911663de9348b08b611dc685611c96565b6040518363ffffffff1660e01b8152600401611de3929190612b89565b602060405180830381865afa158015611e00573d6000803e3d6000fd5b505050506040513d601f19601f82011682018060405250810190611e249190612ba2565b60018301549091506000906001600160a01b031663de9348b08c611e4786611cd1565b6040518363ffffffff1660e01b8152600401611e64929190612b89565b602060405180830381865afa158015611e81573d6000803e3d6000fd5b505050506040513d601f19601f82011682018060405250810190611ea59190612ba2565b905081158015611eb3575080155b15611ec15750505050611f68565b6000808311611ed1576000611edb565b611edb8584611d05565b90506000808311611eed576000611ef7565b611ef78684611d05565b9050611f03828d612c17565b9b50611f0f818c612c17565b6007860154909b50611f2d908390600160381b900461ffff1661265a565b611f37908b612c17565b6007860154909a50611f55908390600160481b900461ffff1661265a565b611f5f908a612c17565b98505050505050505b600101611d6d565b50509193509193565b6000546001600160a01b03163314610e445760405163118cdaa760e01b8152336004820152602401610391565b600080546001600160a01b038381166001600160a01b0319831681178455604051919092169283917f8be0079c531659141344cd1fd0a4f28419497f9722a3daafe3b4186f6b6457e09190a35050565b6001600160a01b03808416600090815260026020526040808220858416835291208154919290911661206a5760405162461bcd60e51b815260206004820152601c60248201527f434f4c4c41544552414c5f524553455256455f4e4f545f464f554e44000000006044820152606401610391565b80546001600160a01b03166120ba5760405162461bcd60e51b81526020600482015260166024820152751111509517d49154d154959157d393d517d193d5539160521b6044820152606401610391565b6007820154600160281b900460ff1680156120e057506007810154600160281b900460ff165b6120fc5760405162461bcd60e51b815260040161039190612b5f565b612105856119d4565b846001600160a01b0316846001600160a01b03161461212757612127846119d4565b60008061213385611d5f565b935050925050600082116121735760405162461bcd60e51b81526020600482015260076024820152661393d7d111509560ca1b6044820152606401610391565b670de0b6b3a76400006121868284612397565b106121c65760405162461bcd60e51b815260206004820152601060248201526f2422a0a62a242cafa827a9a4aa24a7a760811b6044820152606401610391565b50505050505050565b6001810154600480830154604051630de9348b60e41b8152600093849384936001600160a01b039092169263de9348b09261220c928c9201612b89565b602060405180830381865afa158015612229573d6000803e3d6000fd5b505050506040513d601f19601f8201168201806040525081019061224d9190612ba2565b90508086101561225d578561225f565b805b85546003870154604051630de9348b60e41b81529295506000926001600160a01b039092169163de9348b09161229a918c9190600401612b89565b602060405180830381865afa1580156122b7573d6000803e3d6000fd5b505050506040513d601f19601f820116820180604052508101906122db9190612ba2565b90506000811161231d5760405162461bcd60e51b815260206004820152600d60248201526c1393d7d0d3d313105511549053609a1b6044820152606401610391565b600786015461234c908b9061234790600160581b900461ffff166123418d89611d05565b9061265a565b612669565b92508083111561238a578092506123878961234788600701600b9054906101000a900461ffff1661ffff166123818e88611d05565b906126b6565b93505b5050965096945050505050565b6000611cca83670de0b6b3a7640000846126c1565b6040516323b872dd60e01b60008181526001600160a01b038781166004528616602452604485905291602083606481808c5af19250600160005114831661240c5783831516156123ff573d6000823e3d81fd5b6000883b113d1516831692505b60405250600060605295945050505050565b600081158061242b575082155b15612437575082611cca565b6000612445848460016126c1565b9050600061245386836127e1565b905061245f8187612c17565b9695505050505050565b60008160ff1660120361247d575081611d59565b60128260ff1610156124b057612494826012612c61565b61249f90600a612d5e565b6124a99084612d6d565b9050611d59565b6124bb601283612c61565b6124c690600a612d5e565b611cca9084612d9a565b60405163b3596f0760e01b81526001600160a01b03828116600483015260009182917f0000000000000000000000000000000000000000000000000000000000000000169063b3596f0790602401602060405180830381865afa15801561253b573d6000803e3d6000fd5b505050506040513d601f19601f8201168201806040525081019061255f9190612ba2565b905060007f00000000000000000000000000000000000000000000000000000000000000006001600160a01b031663f1a640f86040518163ffffffff1660e01b8152600401602060405180830381865afa1580156125c1573d6000803e3d6000fd5b505050506040513d601f19601f820116820180604052508101906125e59190612dbc565b90508060ff166012036125f9575092915050565b60128160ff16101561262557612610816012612c61565b61261b90600a612d5e565b6119cc9083612d6d565b612630601282612c61565b61263b90600a612d5e565b6119cc9083612d9a565b6000611cca8383670de0b6b3a76400006126c1565b6000611cca83836127106126c1565b6001600160a01b03821660009081526002602052604081208161268b856124d0565b905060006126998583612397565b9050611d53818460020160149054906101000a900460ff166127fa565b6000611cca83612710845b6000816000036127015760405162461bcd60e51b815260206004820152600b60248201526a4449565f42595f5a45524f60a81b6044820152606401610391565b6000806000198587098587029250828110838203039150508060000361273a5783828161273057612730612d84565b0492505050611cca565b8084116127785760405162461bcd60e51b815260206004820152600c60248201526b444956204f564552464c4f5760a01b6044820152606401610391565b60008486880960026001871981018816978890046003810283188082028403028082028403028082028403028082028403028082028403029081029092039091026000889003889004909101858311909403939093029303949094049190911702949350505050565b6000611cca83836b033b2e3c9fd0803ce80000006126c1565b60008160ff1660120361280e575081611d59565b60128260ff16101561283a57612825826012612c61565b61283090600a612d5e565b6124a99084612d9a565b612845601283612c61565b61285090600a612d5e565b611cca9084612d6d565b80356001600160a01b038116811461287157600080fd5b919050565b60006020828403121561288857600080fd5b611cca8261285a565b6000602082840312156128a357600080fd5b5035919050565b600080604083850312156128bd57600080fd5b6128c68361285a565b946020939093013593505050565b600080604083850312156128e757600080fd5b6128f08361285a565b91506128fe6020840161285a565b90509250929050565b6001600160a01b038d811682528c16602082015260ff8b1660408201528915156060820152881515608082015261ffff88811660a0830152871660c0820152610180810161ffff871660e083015261ffff8616610100830152846101208301528361014083015261298261016083018464ffffffffff169052565b9d9c50505050505050505050505050565b6020808252825182820181905260009190848201906040850190845b818110156129d45783516001600160a01b0316835292840192918401916001016129af565b50909695505050505050565b600080600080608085870312156129f657600080fd5b6129ff8561285a565b9350612a0d6020860161285a565b9250612a1b6040860161285a565b9396929550929360600135925050565b60ff8116811461174f57600080fd5b803561ffff8116811461287157600080fd5b60008060008060008060008060006101208a8c031215612a6b57600080fd5b612a748a61285a565b9850612a8260208b0161285a565b9750612a9060408b0161285a565b9650612a9e60608b0161285a565b955060808a0135612aae81612a2b565b9450612abc60a08b01612a3a565b9350612aca60c08b01612a3a565b9250612ad860e08b01612a3a565b9150612ae76101008b01612a3a565b90509295985092959850929598565b634e487b7160e01b600052603260045260246000fd5b6020808252600e908201526d1253959053125117d05353d5539560921b604082015260600190565b602080825260119082015270149154d154959157d393d517d193d55391607a1b604082015260600190565b60208082526010908201526f524553455256455f494e41435449564560801b604082015260600190565b6001600160a01b03929092168252602082015260400190565b600060208284031215612bb457600080fd5b5051919050565b6001600160a01b039390931683526020830191909152604082015260600190565b6020808252600b908201526a1095549397d1905253115160aa1b604082015260600190565b634e487b7160e01b600052601160045260246000fd5b80820180821115611d5957611d59612c01565b81810381811115611d5957611d59612c01565b60008060408385031215612c5057600080fd5b505080516020909101519092909150565b60ff8281168282160390811115611d5957611d59612c01565b600181815b80851115612cb5578160001904821115612c9b57612c9b612c01565b80851615612ca857918102915b93841c9390800290612c7f565b509250929050565b600082612ccc57506001611d59565b81612cd957506000611d59565b8160018114612cef5760028114612cf957612d15565b6001915050611d59565b60ff841115612d0a57612d0a612c01565b50506001821b611d59565b5060208310610133831016604e8410600b8410161715612d38575081810a611d59565b612d428383612c7a565b8060001904821115612d5657612d56612c01565b029392505050565b6000611cca60ff841683612cbd565b8082028115828204841417611d5957611d59612c01565b634e487b7160e01b600052601260045260246000fd5b600082612db757634e487b7160e01b600052601260045260246000fd5b500490565b600060208284031215612dce57600080fd5b8151611cca81612a2b56fea26469706673582212208aae1384ae379e8e819d77cec31829c956a6786b78222bb8afed29cd2d6287f664736f6c63430008180033",
  "linkReferences": {},
  "deployedLinkReferences": {}
}