{
  "_format": "hh-sol-artifact-1",
  "contractName": "LendingPool",
  "sourceName": "contracts/core/LendingPool.sol",
  "abi": [
    {
      "inputs": [
        {
          "internalType": "address",
          "name": "oracle",
          "type": "address"
        },
        {
          "internalType": "address",
          "name": "owner_",
          "type": "address"
        }
      ],
      "stateMutability": "nonpayable",
      "type": "constructor"
    },
    {
      "inputs": [
        {
          "internalType": "address",
          "name": "owner",
          "type": "address"
        }
      ],
      "name": "OwnableInvalidOwner",
      "type": "error"
    },
    {
      "inputs": [
        {
          "internalType": "address",
          "name": "account",
          "type": "address"
        }
      ],
      "name": "OwnableUnauthorizedAccount",
      "type": "error"
    },
    {
      "inputs": [
        {
          "internalType": "address",
          "name": "token",
          "type": "address"
        }
      ],
      "name": "SafeERC20FailedOperation",
      "type": "error"
    },
    {
      "anonymous": false,
      "inputs": [
        {
          "indexed": true,
          "internalType": "address",
          "name": "user",
          "type": "address"
        },
        {
          "indexed": true,
          "internalType": "address",
          "name": "asset",
          "type": "address"
        },
        {
          "indexed": false,
          "internalType": "uint256",
          "name": "amount",
          "type": "uint256"
        }
      ],
      "name": "Borrow",
      "type": "event"
    },
    {
      "anonymous": false,
      "inputs": [
        {
          "indexed": true,
          "internalType": "address",
          "name": "user",
          "type": "address"
        },
        {
          "indexed": true,
          "internalType": "address",
          "name": "asset",
          "type": "address"
        },
        {
          "indexed": false,
          "internalType": "uint256",
          "name": "amount",
          "type": "uint256"
        }
      ],
      "name": "Deposit",
      "type": "event"
    },
    {
      "anonymous": false,
      "inputs": [
        {
          "indexed": true,
          "internalType": "address",
          "name": "user",
          "type": "address"
        },
        {
          "indexed": true,
          "internalType": "address",
          "name": "collateralAsset",
          "type": "address"
        },
        {
          "indexed": true,
          "internalType": "address",
          "name": "debtAsset",
          "type": "address"
        },
        {
          "indexed": false,
          "internalType": "uint256",
          "name": "debtCovered",
          "type": "uint256"
        },
        {
          "indexed": false,
          "internalType": "uint256",
          "name": "collateralSeized",
          "type": "uint256"
        }
      ],
      "name": "Liquidation",
      "type": "event"
    },
    {
      "anonymous": false,
      "inputs": [
        {
          "indexed": true,
          "internalType": "address",
          "name": "previousOwner",
          "type": "address"
        },
        {
          "indexed": true,
          "internalType": "address",
          "name": "newOwner",
          "type": "address"
        }
      ],
      "name": "OwnershipTransferred",
      "type": "event"
    },
    {
      "anonymous": false,
      "inputs": [
        {
          "indexed": true,
          "internalType": "address",
          "name": "user",
          "type": "address"
        },
        {
          "indexed": true,
          "internalType": "address",
          "name": "asset",
          "type": "address"
        },
        {
          "indexed": false,
          "internalType": "uint256",
          "name": "amount",
          "type": "uint256"
        }
      ],
      "name": "Repay",
      "type": "event"
    },
    {
      "anonymous": false,
      "inputs": [
        {
          "indexed": true,
          "internalType": "address",
          "name": "asset",
          "type": "address"
        },
        {
          "indexed": true,
          "internalType": "address",
          "name": "aToken",
          "type": "address"
        },
        {
          "indexed": true,
          "internalType": "address",
          "name": "debtToken",
          "type": "address"
        }
      ],
      "name": "ReserveInitialized",
      "type": "event"
    },
    {
      "anonymous": false,
      "inputs": [
        {
          "indexed": true,
          "internalType": "address",
          "name": "asset",
          "type": "address"
        },
        {
          "indexed": false,
          "internalType": "uint256",
          "name": "liquidityIndexRay",
          "type": "uint256"
        },
        {
          "indexed": false,
          "internalType": "uint256",
          "name": "borrowIndexRay",
          "type": "uint256"
        },
        {
          "indexed": false,
          "internalType": "uint40",
          "name": "timestamp",
          "type": "uint40"
        }
      ],
      "name": "ReserveUpdated",
      "type": "event"
    },
    {
      "anonymous": false,
      "inputs": [
        {
          "indexed": true,
          "internalType": "address",
          "name": "user",
          "type": "address"
        },
        {
          "indexed": true,
          "internalType": "address",
          "name": "asset",
          "type": "address"
        },
        {
          "indexed": false,
          "internalType": "uint256",
          "name": "amount",
          "type": "uint256"
        }
      ],
      "name": "Withdraw",
      "type": "event"
    },
    {
      "inputs": [
        {
          "internalType": "address",
          "name": "asset",
          "type": "address"
        },
        {
          "internalType": "uint256",
          "name": "amount",
          "type": "uint256"
        }
      ],
      "name": "borrow",
      "outputs": [],
      "stateMutability": "nonpayable",
      "type": "function"
    },
    {
      "inputs": [
        {
          "internalType": "address",
          "name": "asset",
          "type": "address"
        },
        {
          "internalType": "uint256",
          "name": "amount",
          "type": "uint256"
        }
      ],
      "name": "deposit",
      "outputs": [],
      "stateMutability": "nonpayable",
      "type": "function"
    },
    {
      "inputs": [
        {
          "internalType": "address",
          "name": "user",
          "type": "address"
        }
      ],
      "name": "getHealthFactor",
      "outputs": [
        {
          "internalType": "uint256",
          "name": "",
          "type": "uint256"
        }
      ],
      "stateMutability": "view",
      "type": "function"
    },
    {
      "inputs": [
        {
          "internalType": "address",
          "name": "asset",
          "type": "address"
        }
      ],
      "name": "getReserveAddresses",
      "outputs": [
        {
          "internalType": "address",
          "name": "aToken",
          "type": "address"
        },
        {
          "internalType": "address",
          "name": "debtToken",
          "type": "address"
        }
      ],
      "stateMutability": "view",
      "type": "function"
    },
    {
      "inputs": [
        {
          "internalType": "address",
          "name": "asset",
          "type": "address"
        }
      ],
      "name": "getReserveIndexes",
      "outputs": [
        {
          "internalType": "uint256",
          "name": "liquidityIndexRay",
          "type": "uint256"
        },
        {
          "internalType": "uint256",
          "name": "borrowIndexRay",
          "type": "uint256"
        },
        {
          "internalType": "uint40",
          "name": "lastUpdateTimestamp",
          "type": "uint40"
        }
      ],
      "stateMutability": "view",
      "type": "function"
    },
    {
      "inputs": [
        {
          "internalType": "address",
          "name": "user",
          "type": "address"
        }
      ],
      "name": "getUserAccountData",
      "outputs": [
        {
          "internalType": "uint256",
          "name": "collateralUsdWad",
          "type": "uint256"
        },
        {
          "internalType": "uint256",
          "name": "debtUsdWad",
          "type": "uint256"
        },
        {
          "internalType": "uint256",
          "name": "maxBorrowUsdWad",
          "type": "uint256"
        },
        {
          "internalType": "uint256",
          "name": "healthFactorWad",
          "type": "uint256"
        }
      ],
      "stateMutability": "view",
      "type": "function"
    },
    {
      "inputs": [
        {
          "internalType": "address",
          "name": "asset",
          "type": "address"
        },
        {
          "internalType": "address",
          "name": "aToken",
          "type": "address"
        },
        {
          "internalType": "address",
          "name": "debtToken",
          "type": "address"
        },
        {
          "internalType": "uint8",
          "name": "assetDecimals",
          "type": "uint8"
        },
        {
          "internalType": "uint16",
          "name": "ltvBps",
          "type": "uint16"
        },
        {
          "internalType": "uint16",
          "name": "liquidationThresholdBps",
          "type": "uint16"
        },
        {
          "internalType": "uint16",
          "name": "liquidationBonusBps",
          "type": "uint16"
        },
        {
          "internalType": "uint16",
          "name": "reserveFactorBps",
          "type": "uint16"
        }
      ],
      "name": "initReserve",
      "outputs": [],
      "stateMutability": "nonpayable",
      "type": "function"
    },
    {
      "inputs": [
        {
          "internalType": "address",
          "name": "collateralAsset",
          "type": "address"
        },
        {
          "internalType": "address",
          "name": "debtAsset",
          "type": "address"
        },
        {
          "internalType": "address",
          "name": "user",
          "type": "address"
        },
        {
          "internalType": "uint256",
          "name": "debtToCover",
          "type": "uint256"
        }
      ],
      "name": "liquidate",
      "outputs": [],
      "stateMutability": "nonpayable",
      "type": "function"
    },
    {
      "inputs": [],
      "name": "owner",
      "outputs": [
        {
          "internalType": "address",
          "name": "",
          "type": "address"
        }
      ],
      "stateMutability": "view",
      "type": "function"
    },
    {
      "inputs": [],
      "name": "priceOracle",
      "outputs": [
        {
          "internalType": "contract IPriceOracle",
          "name": "",
          "type": "address"
        }
      ],
      "stateMutability": "view",
      "type": "function"
    },
    {
      "inputs": [],
      "name": "renounceOwnership",
      "outputs": [],
      "stateMutability": "nonpayable",
      "type": "function"
    },
    {
      "inputs": [
        {
          "internalType": "address",
          "name": "asset",
          "type": "address"
        },
        {
          "internalType": "uint256",
          "name": "amount",
          "type": "uint256"
        }
      ],
      "name": "repay",
      "outputs": [],
      "stateMutability": "nonpayable",
      "type": "function"
    },
    {
      "inputs": [
        {
          "internalType": "address",
          "name": "newOwner",
          "type": "address"
        }
      ],
      "name": "transferOwnership",
      "outputs": [],
      "stateMutability": "nonpayable",
      "type": "function"
    },
    {
      "inputs": [
        {
          "internalType": "address",
          "name": "asset",
          "type": "address"
        },
        {
          "internalType": "uint256",
          "name": "amount",
          "type": "uint256"
        }
      ],
      "name": "withdraw",
      "outputs": [],
      "stateMutability": "nonpayable",
      "type": "function"
    }
  ],
  "bytecode": "0x60a06040523480156200001157600080fd5b5060405162002a8b38038062002a8b833981016040819052620000349162000137565b806001600160a01b0381166200006557604051631e4fbdf760e01b8152600060048201526024015b60405180910390fd5b6200007081620000ca565b506001600160a01b038216620000b75760405162461bcd60e51b815260206004820152600b60248201526a4f5241434c455f5a45524f60a81b60448201526064016200005c565b506001600160a01b03166080526200016f565b600080546001600160a01b038381166001600160a01b0319831681178455604051919092169283917f8be0079c531659141344cd1fd0a4f28419497f9722a3daafe3b4186f6b6457e09190a35050565b80516001600160a01b03811681146200013257600080fd5b919050565b600080604083850312156200014b57600080fd5b62000156836200011a565b915062000166602084016200011a565b90509250929050565b6080516128e4620001a76000396000818161016601528181611d5001528181611dc101528181611fb6015261202901526128e46000f3fe608060405234801561001057600080fd5b50600436106100ea5760003560e01c80638da5cb5b1161008c578063c9ffb40911610066578063c9ffb40914610238578063f2fde38b1461029f578063f3fef3a3146102b2578063fe6bcd7c146102c557600080fd5b80638da5cb5b146101e1578063aab3f868146101f2578063bf92857c1461020557600080fd5b806347e7ef24116100c857806347e7ef24146101a05780634b8a3529146101b3578063641a87a9146101c6578063715018a6146101d957600080fd5b806318e7d504146100ef57806322867d781461014c5780632630c12f14610161575b600080fd5b6101276100fd366004612496565b6001600160a01b039081166000908152600260205260409020805460019091015490821692911690565b604080516001600160a01b039384168152929091166020830152015b60405180910390f35b61015f61015a3660046124b1565b6102e6565b005b6101887f000000000000000000000000000000000000000000000000000000000000000081565b6040516001600160a01b039091168152602001610143565b61015f6101ae3660046124b1565b61054c565b61015f6101c13660046124b1565b610722565b61015f6101d43660046124fc565b610a7a565b61015f610f7e565b6000546001600160a01b0316610188565b61015f610200366004612595565b610f92565b610218610213366004612496565b611669565b604080519485526020850193909352918301526060820152608001610143565b61027d610246366004612496565b6001600160a01b03166000908152600260208190526040909120908101546003820154600690920154909264ffffffffff90911690565b60408051938452602084019290925264ffffffffff1690820152606001610143565b61015f6102ad366004612496565b6116ac565b61015f6102c03660046124b1565b6116ea565b6102d86102d3366004612496565b611930565b604051908152602001610143565b6000811161030f5760405162461bcd60e51b8152600401610306906125e0565b60405180910390fd5b6001600160a01b03808316600090815260026020526040902080549091166103495760405162461bcd60e51b815260040161030690612608565b6006810154600160281b900460ff166103745760405162461bcd60e51b815260040161030690612633565b61037d83611969565b60018101546003820154604051630de9348b60e41b815233600482015260248101919091526000916001600160a01b03169063de9348b090604401602060405180830381865afa1580156103d5573d6000803e3d6000fd5b505050506040513d601f19601f820116820180604052508101906103f9919061265d565b9050600081841161040a578361040c565b815b9050600081116104485760405162461bcd60e51b81526020600482015260076024820152661393d7d111509560ca1b6044820152606401610306565b60018301546003840154604051637a94c56560e11b81526000926001600160a01b03169163f5298aca91610483913391879190600401612676565b6020604051808303816000875af11580156104a2573d6000803e3d6000fd5b505050506040513d601f19601f820116820180604052508101906104c6919061265d565b9050600081116104e85760405162461bcd60e51b815260040161030690612697565b8354610503906001600160a01b038881169133911685611a55565b6040518281526001600160a01b0387169033907f05f2eeda0e08e4b437f487c8d7d29b14537d15e3488170dc3de5dbdf8dac4684906020015b60405180910390a3505050505050565b6000811161056c5760405162461bcd60e51b8152600401610306906125e0565b6001600160a01b03808316600090815260026020526040902080549091166105a65760405162461bcd60e51b815260040161030690612608565b6006810154600160281b900460ff166105d15760405162461bcd60e51b815260040161030690612633565b6006810154600160301b900460ff16156105fd5760405162461bcd60e51b8152600401610306906126bc565b61060683611969565b8054610621906001600160a01b038581169133911685611a55565b80546002820154604051630ab714fb60e11b81526000926001600160a01b03169163156e29f691610659913391889190600401612676565b6020604051808303816000875af1158015610678573d6000803e3d6000fd5b505050506040513d601f19601f8201168201806040525081019061069c919061265d565b9050600081116106dc5760405162461bcd60e51b815260206004820152600b60248201526a1352539517d1905253115160aa1b6044820152606401610306565b6040518381526001600160a01b0385169033907f5548c837ab068cf56a2c2479df0882a4922fd203edb7517321831d95078c5f629060200160405180910390a350505050565b600081116107425760405162461bcd60e51b8152600401610306906125e0565b6001600160a01b038083166000908152600260205260409020805490911661077c5760405162461bcd60e51b815260040161030690612608565b6006810154600160281b900460ff166107a75760405162461bcd60e51b815260040161030690612633565b6006810154600160301b900460ff16156107d35760405162461bcd60e51b8152600401610306906126bc565b6107dc83611969565b80546040516370a0823160e01b81526001600160a01b0391821660048201526000918516906370a0823190602401602060405180830381865afa158015610827573d6000803e3d6000fd5b505050506040513d601f19601f8201168201806040525081019061084b919061265d565b9050828110156108965760405162461bcd60e51b8152602060048201526016602482015275494e53554646494349454e545f4c495155494449545960501b6044820152606401610306565b6000806108a233611a91565b50925092505060006108b48787611cd2565b9050816108c182856126fa565b111561090f5760405162461bcd60e51b815260206004820152601760248201527f494e53554646494349454e545f434f4c4c41544552414c0000000000000000006044820152606401610306565b60018501546003860154604051630ab714fb60e11b81526000926001600160a01b03169163156e29f69161094a9133918c9190600401612676565b6020604051808303816000875af1158015610969573d6000803e3d6000fd5b505050506040513d601f19601f8201168201806040525081019061098d919061265d565b9050600081116109cd5760405162461bcd60e51b815260206004820152600b60248201526a1352539517d1905253115160aa1b6044820152606401610306565b8554604051634efecaa560e01b8152336004820152602481018990526001600160a01b0390911690634efecaa590604401600060405180830381600087803b158015610a1857600080fd5b505af1158015610a2c573d6000803e3d6000fd5b50506040518981526001600160a01b038b1692503391507f312a5e5e1079f5dda4e95dbbd0b908b291fd5b992ef22073643ab691572c5b529060200160405180910390a35050505050505050565b610a82611ec5565b6001600160a01b038816610ac55760405162461bcd60e51b815260206004820152600a60248201526941535345545f5a45524f60b01b6044820152606401610306565b6001600160a01b038716610b095760405162461bcd60e51b815260206004820152600b60248201526a41544f4b454e5f5a45524f60a81b6044820152606401610306565b6001600160a01b038616610b515760405162461bcd60e51b815260206004820152600f60248201526e444542545f544f4b454e5f5a45524f60881b6044820152606401610306565b60128560ff161115610b995760405162461bcd60e51b81526020600482015260116024820152700888a86929a8298a6bea89e9ebe90928e9607b1b6044820152606401610306565b6001600160a01b038089166000908152600260205260409020805490911615610bf55760405162461bcd60e51b815260206004820152600e60248201526d524553455256455f45584953545360901b6044820152606401610306565b6127108461ffff161115610c3f5760405162461bcd60e51b815260206004820152601160248201527010905117d3125457d512149154d213d311607a1b6044820152606401610306565b8361ffff168561ffff161115610c815760405162461bcd60e51b81526020600482015260076024820152662120a22fa62a2b60c91b6044820152606401610306565b6127108361ffff161015610cc75760405162461bcd60e51b815260206004820152600d60248201526c4241445f4c49515f424f4e555360981b6044820152606401610306565b612ee08361ffff161115610d0d5760405162461bcd60e51b815260206004820152600d60248201526c4241445f4c49515f424f4e555360981b6044820152606401610306565b6127108261ffff161115610d585760405162461bcd60e51b81526020600482015260126024820152712120a22fa922a9a2a92b22afa320a1aa27a960711b6044820152606401610306565b878160000160006101000a8154816001600160a01b0302191690836001600160a01b03160217905550868160010160006101000a8154816001600160a01b0302191690836001600160a01b03160217905550858160010160146101000a81548160ff021916908360ff1602179055506b033b2e3c9fd0803ce800000081600201819055506b033b2e3c9fd0803ce800000081600301819055506000816004018190555060008160050181905550428160060160006101000a81548164ffffffffff021916908364ffffffffff16021790555060018160060160056101000a81548160ff02191690831515021790555060008160060160066101000a81548160ff021916908315150217905550848160060160076101000a81548161ffff021916908361ffff160217905550838160060160096101000a81548161ffff021916908361ffff1602179055508281600601600b6101000a81548161ffff021916908361ffff1602179055508181600601600d6101000a81548161ffff021916908361ffff1602179055506001899080600181540180825580915050600190039060005260206000200160009091909190916101000a8154816001600160a01b0302191690836001600160a01b03160217905550866001600160a01b0316886001600160a01b03168a6001600160a01b03167f1d9fcd0dc935b4778d5af97f55c4d7b2553257382f1ef25c412114c8eeebd88e60405160405180910390a4505050505050505050565b610f86611ec5565b610f906000611ef2565b565b60008111610fb25760405162461bcd60e51b8152600401610306906125e0565b6001600160a01b038216610ff45760405162461bcd60e51b8152602060048201526009602482015268555345525f5a45524f60b81b6044820152606401610306565b6001600160a01b0380851660009081526002602052604080822086841683529120815491929091166110685760405162461bcd60e51b815260206004820152601c60248201527f434f4c4c41544552414c5f524553455256455f4e4f545f464f554e44000000006044820152606401610306565b80546001600160a01b03166110b85760405162461bcd60e51b81526020600482015260166024820152751111509517d49154d154959157d393d517d193d5539160521b6044820152606401610306565b6006820154600160281b900460ff1680156110de57506006810154600160281b900460ff165b6110fa5760405162461bcd60e51b815260040161030690612633565b6006820154600160301b900460ff1615801561112257506006810154600160301b900460ff16155b61113e5760405162461bcd60e51b8152600401610306906126bc565b61114786611969565b856001600160a01b0316856001600160a01b0316146111695761116985611969565b604051633f9af35f60e21b81526001600160a01b0385166004820152600090309063fe6bcd7c90602401602060405180830381865afa1580156111b0573d6000803e3d6000fd5b505050506040513d601f19601f820116820180604052508101906111d4919061265d565b9050670de0b6b3a764000081106112205760405162461bcd60e51b815260206004820152601060248201526f2422a0a62a242cafa827a9a4aa24a7a760811b6044820152606401610306565b60018201546003830154604051630de9348b60e41b81526000926001600160a01b03169163de9348b09161126c918a916004016001600160a01b03929092168252602082015260400190565b602060405180830381865afa158015611289573d6000803e3d6000fd5b505050506040513d601f19601f820116820180604052508101906112ad919061265d565b9050600081116112e95760405162461bcd60e51b81526020600482015260076024820152661393d7d111509560ca1b6044820152606401610306565b808510156112f45750835b83546002850154604051630de9348b60e41b81526000926001600160a01b03169163de9348b09161133d918b916004016001600160a01b03929092168252602082015260400190565b602060405180830381865afa15801561135a573d6000803e3d6000fd5b505050506040513d601f19601f8201168201806040525081019061137e919061265d565b9050600081116113c05760405162461bcd60e51b815260206004820152600d60248201526c1393d7d0d3d313105511549053609a1b6044820152606401610306565b60068501546000906113f2908b906113ed90600160581b900461ffff166113e78d88611cd2565b90611f42565b611f58565b90508181111561142c575060068501548190611429908a906113ed90600160581b900461ffff166114238e86611cd2565b9061213e565b92505b6000831161144c5760405162461bcd60e51b8152600401610306906125e0565b8454611467906001600160a01b038b81169133911686611a55565b60018501546003860154604051637a94c56560e11b81526000926001600160a01b03169163f5298aca916114a2918d91899190600401612676565b6020604051808303816000875af11580156114c1573d6000803e3d6000fd5b505050506040513d601f19601f820116820180604052508101906114e5919061265d565b116115025760405162461bcd60e51b815260040161030690612697565b85546002870154604051637a94c56560e11b81526000926001600160a01b03169163f5298aca9161153a918d91879190600401612676565b6020604051808303816000875af1158015611559573d6000803e3d6000fd5b505050506040513d601f19601f8201168201806040525081019061157d919061265d565b1161159a5760405162461bcd60e51b815260040161030690612697565b8554604051634efecaa560e01b8152336004820152602481018390526001600160a01b0390911690634efecaa590604401600060405180830381600087803b1580156115e557600080fd5b505af11580156115f9573d6000803e3d6000fd5b50505050886001600160a01b03168a6001600160a01b0316896001600160a01b03167fd58706648644be277f6999c826f65f98128c29c6846a892b929a304a7f19e3eb8685604051611655929190918252602082015260400190565b60405180910390a450505050505050505050565b600080600080600061167a86611a91565b9297509095509350905060008490036116975760001991506116a4565b6116a1818561214d565b91505b509193509193565b6116b4611ec5565b6001600160a01b0381166116de57604051631e4fbdf760e01b815260006004820152602401610306565b6116e781611ef2565b50565b6000811161170a5760405162461bcd60e51b8152600401610306906125e0565b6001600160a01b03808316600090815260026020526040902080549091166117445760405162461bcd60e51b815260040161030690612608565b6006810154600160281b900460ff1661176f5760405162461bcd60e51b815260040161030690612633565b61177883611969565b80546002820154604051637a94c56560e11b81526000926001600160a01b03169163f5298aca916117b0913391889190600401612676565b6020604051808303816000875af11580156117cf573d6000803e3d6000fd5b505050506040513d601f19601f820116820180604052508101906117f3919061265d565b9050600081116118155760405162461bcd60e51b815260040161030690612697565b60008061182133611a91565b935050925050600082111561189057600061183c828461214d565b9050670de0b6b3a764000081101561188e5760405162461bcd60e51b81526020600482015260156024820152744845414c54485f464143544f525f544f4f5f4c4f5760581b6044820152606401610306565b505b8354604051634efecaa560e01b8152336004820152602481018790526001600160a01b0390911690634efecaa590604401600060405180830381600087803b1580156118db57600080fd5b505af11580156118ef573d6000803e3d6000fd5b50506040518781526001600160a01b03891692503391507f9b1bfa7fa9ee420a16e124f794c35ac9f90472acc99140eb2f6447c714cad8eb9060200161053c565b600080600061193e84611a91565b9350509250508160000361195757506000199392505050565b611961818361214d565b949350505050565b6001600160a01b03808216600090815260026020526040902080549091166119a35760405162461bcd60e51b815260040161030690612608565b600681015442906000906119c29064ffffffffff90811690841661270d565b9050806000036119d25750505050565b6119dc8382612162565b60068301805464ffffffffff191664ffffffffff8416908117909155600284015460038501546040805192835260208301919091528101919091526001600160a01b038516907f6e7d000591506e37cac1c97e15c07b4979a001854fc118f8183f770bcbd99b6f9060600160405180910390a250505050565b611a638484848460016121f8565b611a8b57604051635274afe760e01b81526001600160a01b0385166004820152602401610306565b50505050565b60008060008060005b6001548110156116a457600060018281548110611ab957611ab9612720565b60009182526020808320909101546001600160a01b039081168084526002909252604090922080549193509116611af1575050611cca565b80546002820154604051630de9348b60e41b81526000926001600160a01b03169163de9348b091611b3a918d916004016001600160a01b03929092168252602082015260400190565b602060405180830381865afa158015611b57573d6000803e3d6000fd5b505050506040513d601f19601f82011682018060405250810190611b7b919061265d565b60018301546003840154604051630de9348b60e41b81526001600160a01b038d81166004830152602482019290925292935060009291169063de9348b090604401602060405180830381865afa158015611bd9573d6000803e3d6000fd5b505050506040513d601f19601f82011682018060405250810190611bfd919061265d565b905081158015611c0b575080155b15611c195750505050611cca565b6000808311611c29576000611c33565b611c338584611cd2565b90506000808311611c45576000611c4f565b611c4f8684611cd2565b9050611c5b828c6126fa565b9a50611c67818b6126fa565b6006860154909a50611c89908390670100000000000000900461ffff16611f42565b611c93908a6126fa565b6006860154909950611cb79083906901000000000000000000900461ffff16611f42565b611cc190896126fa565b97505050505050505b600101611a9a565b6001600160a01b03808316600090815260026020526040812080549192909116611d0e5760405162461bcd60e51b815260040161030690612608565b6000611d2b848360010160149054906101000a900460ff1661226a565b60405163b3596f0760e01b81526001600160a01b0387811660048301529192506000917f0000000000000000000000000000000000000000000000000000000000000000169063b3596f0790602401602060405180830381865afa158015611d97573d6000803e3d6000fd5b505050506040513d601f19601f82011682018060405250810190611dbb919061265d565b905060007f00000000000000000000000000000000000000000000000000000000000000006001600160a01b031663f1a640f86040518163ffffffff1660e01b8152600401602060405180830381865afa158015611e1d573d6000803e3d6000fd5b505050506040513d601f19601f82011682018060405250810190611e419190612736565b905060008160ff16601203611e57575081611ead565b60128260ff161015611e8a57611e6e826012612753565b611e7990600a612850565b611e83908461285f565b9050611ead565b611e95601283612753565b611ea090600a612850565b611eaa908461288c565b90505b611eb784826122d1565b955050505050505b92915050565b6000546001600160a01b03163314610f905760405163118cdaa760e01b8152336004820152602401610306565b600080546001600160a01b038381166001600160a01b0319831681178455604051919092169283917f8be0079c531659141344cd1fd0a4f28419497f9722a3daafe3b4186f6b6457e09190a35050565b6000611f5183836127106122e2565b9392505050565b6001600160a01b03808316600090815260026020526040812080549192909116611f945760405162461bcd60e51b815260040161030690612608565b60405163b3596f0760e01b81526001600160a01b0385811660048301526000917f00000000000000000000000000000000000000000000000000000000000000009091169063b3596f0790602401602060405180830381865afa158015611fff573d6000803e3d6000fd5b505050506040513d601f19601f82011682018060405250810190612023919061265d565b905060007f00000000000000000000000000000000000000000000000000000000000000006001600160a01b031663f1a640f86040518163ffffffff1660e01b8152600401602060405180830381865afa158015612085573d6000803e3d6000fd5b505050506040513d601f19601f820116820180604052508101906120a99190612736565b905060008160ff166012036120bf575081612115565b60128260ff1610156120f2576120d6826012612753565b6120e190600a612850565b6120eb908461285f565b9050612115565b6120fd601283612753565b61210890600a612850565b612112908461288c565b90505b6000612121878361214d565b9050611eb7818660010160149054906101000a900460ff16612401565b6000611f5183612710846122e2565b6000611f5183670de0b6b3a7640000846122e2565b8060000361216e575050565b6004820154156121b157600061219882846004015461218d919061285f565b600285015490612461565b90508083600201546121aa91906126fa565b6002840155505b6005820154156121f45760006121db8284600501546121d0919061285f565b600385015490612461565b90508083600301546121ed91906126fa565b6003840155505b5050565b6040516323b872dd60e01b60008181526001600160a01b038781166004528616602452604485905291602083606481808c5af19250600160005114831661225857838315161561224b573d6000823e3d81fd5b6000883b113d1516831692505b60405250600060605295945050505050565b60008160ff1660120361227e575081611ebf565b60128260ff1610156122b157612295826012612753565b6122a090600a612850565b6122aa908461285f565b9050611ebf565b6122bc601283612753565b6122c790600a612850565b611f51908461288c565b6000611f518383670de0b6b3a76400005b6000816000036123225760405162461bcd60e51b815260206004820152600b60248201526a4449565f42595f5a45524f60a81b6044820152606401610306565b6000806000198587098587029250828110838203039150508060000361235b5783828161235157612351612876565b0492505050611f51565b8084116123995760405162461bcd60e51b815260206004820152600c60248201526b444956204f564552464c4f5760a01b6044820152606401610306565b600084868809600260036001881981018916988990049182028318808302840302808302840302808302840302808302840302808302840302918202909203026000889003889004909101858311909403939093029303949094049190911702949350505050565b60008160ff16601203612415575081611ebf565b60128260ff1610156124415761242c826012612753565b61243790600a612850565b6122aa908461288c565b61244c601283612753565b61245790600a612850565b611f51908461285f565b6000611f5183836b033b2e3c9fd0803ce80000006122e2565b80356001600160a01b038116811461249157600080fd5b919050565b6000602082840312156124a857600080fd5b611f518261247a565b600080604083850312156124c457600080fd5b6124cd8361247a565b946020939093013593505050565b60ff811681146116e757600080fd5b803561ffff8116811461249157600080fd5b600080600080600080600080610100898b03121561251957600080fd5b6125228961247a565b975061253060208a0161247a565b965061253e60408a0161247a565b9550606089013561254e816124db565b945061255c60808a016124ea565b935061256a60a08a016124ea565b925061257860c08a016124ea565b915061258660e08a016124ea565b90509295985092959890939650565b600080600080608085870312156125ab57600080fd5b6125b48561247a565b93506125c26020860161247a565b92506125d06040860161247a565b9396929550929360600135925050565b6020808252600e908201526d1253959053125117d05353d5539560921b604082015260600190565b602080825260119082015270149154d154959157d393d517d193d55391607a1b604082015260600190565b60208082526010908201526f524553455256455f494e41435449564560801b604082015260600190565b60006020828403121561266f57600080fd5b5051919050565b6001600160a01b039390931683526020830191909152604082015260600190565b6020808252600b908201526a1095549397d1905253115160aa1b604082015260600190565b6020808252600e908201526d2922a9a2a92b22afa32927ad22a760911b604082015260600190565b634e487b7160e01b600052601160045260246000fd5b80820180821115611ebf57611ebf6126e4565b81810381811115611ebf57611ebf6126e4565b634e487b7160e01b600052603260045260246000fd5b60006020828403121561274857600080fd5b8151611f51816124db565b60ff8281168282160390811115611ebf57611ebf6126e4565b600181815b808511156127a757816000190482111561278d5761278d6126e4565b8085161561279a57918102915b93841c9390800290612771565b509250929050565b6000826127be57506001611ebf565b816127cb57506000611ebf565b81600181146127e157600281146127eb57612807565b6001915050611ebf565b60ff8411156127fc576127fc6126e4565b50506001821b611ebf565b5060208310610133831016604e8410600b841016171561282a575081810a611ebf565b612834838361276c565b8060001904821115612848576128486126e4565b029392505050565b6000611f5160ff8416836127af565b8082028115828204841417611ebf57611ebf6126e4565b634e487b7160e01b600052601260045260246000fd5b6000826128a957634e487b7160e01b600052601260045260246000fd5b50049056fea26469706673582212201de48e55e222e21215dd3cd091cdb269a580488727d4239d581246e963143cd764736f6c63430008180033",
  "linkReferences": {},
  "deployedLinkReferences": {}
}