{
  "_format": "hh-sol-artifact-1",
  "contractName": "LendingPool",
  "sourceName": "contracts/core/LendingPool.sol",
  "abi": [
    {
      "inputs": [
        {
          "internalType": "address",
          "name": "oracle",
          "type": "address"
        },
        {
          "internalType": "address",
          "name": "owner_",
          "type": "address"
        }
      ],
      "stateMutability": "nonpayable",
      "type": "constructor"
    },
    {
      "inputs": [
        {
          "internalType": "address",
          "name": "owner",
          "type": "address"
        }
      ],
      "name": "OwnableInvalidOwner",
      "type": "error"
    },
    {
      "inputs": [
        {
          "internalType": "address",
          "name": "account",
          "type": "address"
        }
      ],
      "name": "OwnableUnauthorizedAccount",
      "type": "error"
    },
    {
      "inputs": [
        {
          "internalType": "address",
          "name": "token",
          "type": "address"
        }
      ],
      "name": "SafeERC20FailedOperation",
      "type": "error"
    },
    {
      "anonymous": false,
      "inputs": [
        {
          "indexed": true,
          "internalType": "address",
          "name": "user",
          "type": "address"
        },
        {
          "indexed": true,
          "internalType": "address",
          "name": "asset",
          "type": "address"
        },
        {
          "indexed": false,
          "internalType": "uint256",
          "name": "amount",
          "type": "uint256"
        }
      ],
      "name": "Borrow",
      "type": "event"
    },
    {
      "anonymous": false,
      "inputs": [
        {
          "indexed": true,
          "internalType": "address",
          "name": "user",
          "type": "address"
        },
        {
          "indexed": true,
          "internalType": "address",
          "name": "asset",
          "type": "address"
        },
        {
          "indexed": false,
          "internalType": "uint256",
          "name": "amount",
          "type": "uint256"
        }
      ],
      "name": "Deposit",
      "type": "event"
    },
    {
      "anonymous": false,
      "inputs": [
        {
          "indexed": true,
          "internalType": "address",
          "name": "user",
          "type": "address"
        },
        {
          "indexed": true,
          "internalType": "address",
          "name": "collateralAsset",
          "type": "address"
        },
        {
          "indexed": true,
          "internalType": "address",
          "name": "debtAsset",
          "type": "address"
        },
        {
          "indexed": false,
          "internalType": "uint256",
          "name": "debtCovered",
          "type": "uint256"
        },
        {
          "indexed": false,
          "internalType": "uint256",
          "name": "collateralSeized",
          "type": "uint256"
        }
      ],
      "name": "Liquidation",
      "type": "event"
    },
    {
      "anonymous": false,
      "inputs": [
        {
          "indexed": true,
          "internalType": "address",
          "name": "previousOwner",
          "type": "address"
        },
        {
          "indexed": true,
          "internalType": "address",
          "name": "newOwner",
          "type": "address"
        }
      ],
      "name": "OwnershipTransferred",
      "type": "event"
    },
    {
      "anonymous": false,
      "inputs": [
        {
          "indexed": true,
          "internalType": "address",
          "name": "user",
          "type": "address"
        },
        {
          "indexed": true,
          "internalType": "address",
          "name": "asset",
          "type": "address"
        },
        {
          "indexed": false,
          "internalType": "uint256",
          "name": "amount",
          "type": "uint256"
        }
      ],
      "name": "Repay",
      "type": "event"
    },
    {
      "anonymous": false,
      "inputs": [
        {
          "indexed": true,
          "internalType": "address",
          "name": "asset",
          "type": "address"
        },
        {
          "indexed": true,
          "internalType": "address",
          "name": "aToken",
          "type": "address"
        },
        {
          "indexed": true,
          "internalType": "address",
          "name": "debtToken",
          "type": "address"
        }
      ],
      "name": "ReserveInitialized",
      "type": "event"
    },
    {
      "anonymous": false,
      "inputs": [
        {
          "indexed": true,
          "internalType": "address",
          "name": "asset",
          "type": "address"
        },
        {
          "indexed": false,
          "internalType": "uint256",
          "name": "liquidityIndexRay",
          "type": "uint256"
        },
        {
          "indexed": false,
          "internalType": "uint256",
          "name": "borrowIndexRay",
          "type": "uint256"
        },
        {
          "indexed": false,
          "internalType": "uint40",
          "name": "timestamp",
          "type": "uint40"
        }
      ],
      "name": "ReserveUpdated",
      "type": "event"
    },
    {
      "anonymous": false,
      "inputs": [
        {
          "indexed": true,
          "internalType": "address",
          "name": "user",
          "type": "address"
        },
        {
          "indexed": true,
          "internalType": "address",
          "name": "asset",
          "type": "address"
        },
        {
          "indexed": false,
          "internalType": "uint256",
          "name": "amount",
          "type": "uint256"
        }
      ],
      "name": "Withdraw",
      "type": "event"
    },
    {
      "inputs": [
        {
          "internalType": "address",
          "name": "asset",
          "type": "address"
        },
        {
          "internalType": "uint256",
          "name": "amount",
          "type": "uint256"
        }
      ],
      "name": "borrow",
      "outputs": [],
      "stateMutability": "nonpayable",
      "type": "function"
    },
    {
      "inputs": [
        {
          "internalType": "address",
          "name": "asset",
          "type": "address"
        },
        {
          "internalType": "uint256",
          "name": "amount",
          "type": "uint256"
        }
      ],
      "name": "deposit",
      "outputs": [],
      "stateMutability": "nonpayable",
      "type": "function"
    },
    {
      "inputs": [
        {
          "internalType": "address",
          "name": "user",
          "type": "address"
        }
      ],
      "name": "getHealthFactor",
      "outputs": [
        {
          "internalType": "uint256",
          "name": "",
          "type": "uint256"
        }
      ],
      "stateMutability": "view",
      "type": "function"
    },
    {
      "inputs": [
        {
          "internalType": "uint256",
          "name": "index",
          "type": "uint256"
        }
      ],
      "name": "getReserveAt",
      "outputs": [
        {
          "internalType": "address",
          "name": "",
          "type": "address"
        }
      ],
      "stateMutability": "view",
      "type": "function"
    },
    {
      "inputs": [],
      "name": "getReserveCount",
      "outputs": [
        {
          "internalType": "uint256",
          "name": "",
          "type": "uint256"
        }
      ],
      "stateMutability": "view",
      "type": "function"
    },
    {
      "inputs": [
        {
          "internalType": "address",
          "name": "asset",
          "type": "address"
        }
      ],
      "name": "getReserveData",
      "outputs": [
        {
          "internalType": "address",
          "name": "aToken",
          "type": "address"
        },
        {
          "internalType": "address",
          "name": "debtToken",
          "type": "address"
        },
        {
          "internalType": "uint8",
          "name": "assetDecimals",
          "type": "uint8"
        },
        {
          "internalType": "bool",
          "name": "isActive",
          "type": "bool"
        },
        {
          "internalType": "bool",
          "name": "isFrozen",
          "type": "bool"
        },
        {
          "internalType": "uint16",
          "name": "ltvBps",
          "type": "uint16"
        },
        {
          "internalType": "uint16",
          "name": "liquidationThresholdBps",
          "type": "uint16"
        },
        {
          "internalType": "uint16",
          "name": "liquidationBonusBps",
          "type": "uint16"
        },
        {
          "internalType": "uint16",
          "name": "reserveFactorBps",
          "type": "uint16"
        },
        {
          "internalType": "uint256",
          "name": "liquidityIndexRay",
          "type": "uint256"
        },
        {
          "internalType": "uint256",
          "name": "borrowIndexRay",
          "type": "uint256"
        },
        {
          "internalType": "uint40",
          "name": "lastUpdateTimestamp",
          "type": "uint40"
        }
      ],
      "stateMutability": "view",
      "type": "function"
    },
    {
      "inputs": [],
      "name": "getReserveList",
      "outputs": [
        {
          "internalType": "address[]",
          "name": "",
          "type": "address[]"
        }
      ],
      "stateMutability": "view",
      "type": "function"
    },
    {
      "inputs": [
        {
          "internalType": "address",
          "name": "user",
          "type": "address"
        }
      ],
      "name": "getUserAccountData",
      "outputs": [
        {
          "internalType": "uint256",
          "name": "collateralUsdWad",
          "type": "uint256"
        },
        {
          "internalType": "uint256",
          "name": "debtUsdWad",
          "type": "uint256"
        },
        {
          "internalType": "uint256",
          "name": "maxBorrowUsdWad",
          "type": "uint256"
        },
        {
          "internalType": "uint256",
          "name": "healthFactorWad",
          "type": "uint256"
        }
      ],
      "stateMutability": "view",
      "type": "function"
    },
    {
      "inputs": [
        {
          "internalType": "address",
          "name": "user",
          "type": "address"
        },
        {
          "internalType": "address",
          "name": "asset",
          "type": "address"
        }
      ],
      "name": "getUserReserveData",
      "outputs": [
        {
          "internalType": "uint256",
          "name": "collateralAmount",
          "type": "uint256"
        },
        {
          "internalType": "uint256",
          "name": "debtAmount",
          "type": "uint256"
        },
        {
          "internalType": "uint256",
          "name": "collateralUsdWad",
          "type": "uint256"
        },
        {
          "internalType": "uint256",
          "name": "debtUsdWad",
          "type": "uint256"
        }
      ],
      "stateMutability": "view",
      "type": "function"
    },
    {
      "inputs": [
        {
          "internalType": "address",
          "name": "asset",
          "type": "address"
        },
        {
          "internalType": "address",
          "name": "aToken",
          "type": "address"
        },
        {
          "internalType": "address",
          "name": "debtToken",
          "type": "address"
        },
        {
          "internalType": "uint8",
          "name": "assetDecimals",
          "type": "uint8"
        },
        {
          "internalType": "uint16",
          "name": "ltvBps",
          "type": "uint16"
        },
        {
          "internalType": "uint16",
          "name": "liquidationThresholdBps",
          "type": "uint16"
        },
        {
          "internalType": "uint16",
          "name": "liquidationBonusBps",
          "type": "uint16"
        },
        {
          "internalType": "uint16",
          "name": "reserveFactorBps",
          "type": "uint16"
        }
      ],
      "name": "initReserve",
      "outputs": [],
      "stateMutability": "nonpayable",
      "type": "function"
    },
    {
      "inputs": [
        {
          "internalType": "address",
          "name": "collateralAsset",
          "type": "address"
        },
        {
          "internalType": "address",
          "name": "debtAsset",
          "type": "address"
        },
        {
          "internalType": "address",
          "name": "user",
          "type": "address"
        },
        {
          "internalType": "uint256",
          "name": "debtToCover",
          "type": "uint256"
        }
      ],
      "name": "liquidate",
      "outputs": [],
      "stateMutability": "nonpayable",
      "type": "function"
    },
    {
      "inputs": [],
      "name": "owner",
      "outputs": [
        {
          "internalType": "address",
          "name": "",
          "type": "address"
        }
      ],
      "stateMutability": "view",
      "type": "function"
    },
    {
      "inputs": [],
      "name": "priceOracle",
      "outputs": [
        {
          "internalType": "contract IPriceOracle",
          "name": "",
          "type": "address"
        }
      ],
      "stateMutability": "view",
      "type": "function"
    },
    {
      "inputs": [],
      "name": "renounceOwnership",
      "outputs": [],
      "stateMutability": "nonpayable",
      "type": "function"
    },
    {
      "inputs": [
        {
          "internalType": "address",
          "name": "asset",
          "type": "address"
        },
        {
          "internalType": "uint256",
          "name": "amount",
          "type": "uint256"
        }
      ],
      "name": "repay",
      "outputs": [],
      "stateMutability": "nonpayable",
      "type": "function"
    },
    {
      "inputs": [
        {
          "internalType": "address",
          "name": "newOwner",
          "type": "address"
        }
      ],
      "name": "transferOwnership",
      "outputs": [],
      "stateMutability": "nonpayable",
      "type": "function"
    },
    {
      "inputs": [
        {
          "internalType": "address",
          "name": "asset",
          "type": "address"
        },
        {
          "internalType": "uint256",
          "name": "amount",
          "type": "uint256"
        }
      ],
      "name": "withdraw",
      "outputs": [],
      "stateMutability": "nonpayable",
      "type": "function"
    }
  ],
  "bytecode": "0x60a06040523480156200001157600080fd5b5060405162002de038038062002de0833981016040819052620000349162000137565b806001600160a01b0381166200006557604051631e4fbdf760e01b8152600060048201526024015b60405180910390fd5b6200007081620000ca565b506001600160a01b038216620000b75760405162461bcd60e51b815260206004820152600b60248201526a4f5241434c455f5a45524f60a81b60448201526064016200005c565b506001600160a01b03166080526200016f565b600080546001600160a01b038381166001600160a01b0319831681178455604051919092169283917f8be0079c531659141344cd1fd0a4f28419497f9722a3daafe3b4186f6b6457e09190a35050565b80516001600160a01b03811681146200013257600080fd5b919050565b600080604083850312156200014b57600080fd5b62000156836200011a565b915062000166602084016200011a565b90509250929050565b608051612c39620001a76000396000818161015a01528181611d4701528181611db8015281816121cd01526122400152612c396000f3fe608060405234801561001057600080fd5b506004361061010b5760003560e01c806366d4c413116100a2578063aab3f86811610071578063aab3f868146102e2578063bf92857c146102f5578063f2fde38b14610308578063f3fef3a31461031b578063fe6bcd7c1461032e57600080fd5b806366d4c413146102a2578063715018a6146102b75780638da5cb5b146102bf57806399806546146102d057600080fd5b806335ea6a75116100de57806335ea6a75146101af57806347e7ef24146102695780634b8a35291461027c578063641a87a91461028f57600080fd5b8063107c04181461011057806322867d78146101405780632630c12f1461015557806328dd2d011461017c575b600080fd5b61012361011e366004612691565b610341565b6040516001600160a01b0390911681526020015b60405180910390f35b61015361014e3660046126c6565b610371565b005b6101237f000000000000000000000000000000000000000000000000000000000000000081565b61018f61018a3660046126f0565b6105d4565b604080519485526020850193909352918301526060820152608001610137565b6102516101bd366004612723565b6001600160a01b03908116600090815260026020819052604090912080546001820154600683015493830154600390930154918516959481169460ff600160a01b909204821694600160281b8104831694600160301b82049093169361ffff600160381b8304811694600160481b8404821694600160581b8504831694600160681b810490931693919264ffffffffff1690565b6040516101379c9b9a9998979695949392919061273e565b6101536102773660046126c6565b61074a565b61015361028a3660046126c6565b610920565b61015361029d3660046127eb565b610c78565b6102aa61117c565b6040516101379190612884565b6101536111de565b6000546001600160a01b0316610123565b6001545b604051908152602001610137565b6101536102f03660046128d1565b6111f2565b61018f610303366004612723565b6118a1565b610153610316366004612723565b6118e4565b6101536103293660046126c6565b611922565b6102d461033c366004612723565b611b68565b6000600182815481106103565761035661291c565b6000918252602090912001546001600160a01b031692915050565b6000811161039a5760405162461bcd60e51b815260040161039190612932565b60405180910390fd5b6001600160a01b03808316600090815260026020526040902080549091166103d45760405162461bcd60e51b81526004016103919061295a565b6006810154600160281b900460ff166103ff5760405162461bcd60e51b815260040161039190612985565b61040883611ba1565b60018101546003820154604051630de9348b60e41b81526000926001600160a01b03169163de9348b0916104409133916004016129af565b602060405180830381865afa15801561045d573d6000803e3d6000fd5b505050506040513d601f19601f8201168201806040525081019061048191906129c8565b905060008184116104925783610494565b815b9050600081116104d05760405162461bcd60e51b81526020600482015260076024820152661393d7d111509560ca1b6044820152606401610391565b60018301546003840154604051637a94c56560e11b81526000926001600160a01b03169163f5298aca9161050b9133918791906004016129e1565b6020604051808303816000875af115801561052a573d6000803e3d6000fd5b505050506040513d601f19601f8201168201806040525081019061054e91906129c8565b9050600081116105705760405162461bcd60e51b815260040161039190612a02565b835461058b906001600160a01b038881169133911685611c8d565b6040518281526001600160a01b0387169033907f05f2eeda0e08e4b437f487c8d7d29b14537d15e3488170dc3de5dbdf8dac4684906020015b60405180910390a3505050505050565b6001600160a01b038082166000908152600260205260408120805491928392839283929091166106165760405162461bcd60e51b81526004016103919061295a565b80546002820154604051630de9348b60e41b81526001600160a01b039092169163de9348b09161064b918b91906004016129af565b602060405180830381865afa158015610668573d6000803e3d6000fd5b505050506040513d601f19601f8201168201806040525081019061068c91906129c8565b60018201546003830154604051630de9348b60e41b81529297506001600160a01b039091169163de9348b0916106c7918b91906004016129af565b602060405180830381865afa1580156106e4573d6000803e3d6000fd5b505050506040513d601f19601f8201168201806040525081019061070891906129c8565b935060008511610719576000610723565b6107238686611cc9565b92506000841161073457600061073e565b61073e8685611cc9565b91505092959194509250565b6000811161076a5760405162461bcd60e51b815260040161039190612932565b6001600160a01b03808316600090815260026020526040902080549091166107a45760405162461bcd60e51b81526004016103919061295a565b6006810154600160281b900460ff166107cf5760405162461bcd60e51b815260040161039190612985565b6006810154600160301b900460ff16156107fb5760405162461bcd60e51b815260040161039190612a27565b61080483611ba1565b805461081f906001600160a01b038581169133911685611c8d565b80546002820154604051630ab714fb60e11b81526000926001600160a01b03169163156e29f6916108579133918891906004016129e1565b6020604051808303816000875af1158015610876573d6000803e3d6000fd5b505050506040513d601f19601f8201168201806040525081019061089a91906129c8565b9050600081116108da5760405162461bcd60e51b815260206004820152600b60248201526a1352539517d1905253115160aa1b6044820152606401610391565b6040518381526001600160a01b0385169033907f5548c837ab068cf56a2c2479df0882a4922fd203edb7517321831d95078c5f629060200160405180910390a350505050565b600081116109405760405162461bcd60e51b815260040161039190612932565b6001600160a01b038083166000908152600260205260409020805490911661097a5760405162461bcd60e51b81526004016103919061295a565b6006810154600160281b900460ff166109a55760405162461bcd60e51b815260040161039190612985565b6006810154600160301b900460ff16156109d15760405162461bcd60e51b815260040161039190612a27565b6109da83611ba1565b80546040516370a0823160e01b81526001600160a01b0391821660048201526000918516906370a0823190602401602060405180830381865afa158015610a25573d6000803e3d6000fd5b505050506040513d601f19601f82011682018060405250810190610a4991906129c8565b905082811015610a945760405162461bcd60e51b8152602060048201526016602482015275494e53554646494349454e545f4c495155494449545960501b6044820152606401610391565b600080610aa033611ebc565b5092509250506000610ab28787611cc9565b905081610abf8285612a65565b1115610b0d5760405162461bcd60e51b815260206004820152601760248201527f494e53554646494349454e545f434f4c4c41544552414c0000000000000000006044820152606401610391565b60018501546003860154604051630ab714fb60e11b81526000926001600160a01b03169163156e29f691610b489133918c91906004016129e1565b6020604051808303816000875af1158015610b67573d6000803e3d6000fd5b505050506040513d601f19601f82011682018060405250810190610b8b91906129c8565b905060008111610bcb5760405162461bcd60e51b815260206004820152600b60248201526a1352539517d1905253115160aa1b6044820152606401610391565b8554604051634efecaa560e01b81526001600160a01b0390911690634efecaa590610bfc9033908b906004016129af565b600060405180830381600087803b158015610c1657600080fd5b505af1158015610c2a573d6000803e3d6000fd5b50506040518981526001600160a01b038b1692503391507f312a5e5e1079f5dda4e95dbbd0b908b291fd5b992ef22073643ab691572c5b529060200160405180910390a35050505050505050565b610c806120dc565b6001600160a01b038816610cc35760405162461bcd60e51b815260206004820152600a60248201526941535345545f5a45524f60b01b6044820152606401610391565b6001600160a01b038716610d075760405162461bcd60e51b815260206004820152600b60248201526a41544f4b454e5f5a45524f60a81b6044820152606401610391565b6001600160a01b038616610d4f5760405162461bcd60e51b815260206004820152600f60248201526e444542545f544f4b454e5f5a45524f60881b6044820152606401610391565b60128560ff161115610d975760405162461bcd60e51b81526020600482015260116024820152700888a86929a8298a6bea89e9ebe90928e9607b1b6044820152606401610391565b6001600160a01b038089166000908152600260205260409020805490911615610df35760405162461bcd60e51b815260206004820152600e60248201526d524553455256455f45584953545360901b6044820152606401610391565b6127108461ffff161115610e3d5760405162461bcd60e51b815260206004820152601160248201527010905117d3125457d512149154d213d311607a1b6044820152606401610391565b8361ffff168561ffff161115610e7f5760405162461bcd60e51b81526020600482015260076024820152662120a22fa62a2b60c91b6044820152606401610391565b6127108361ffff161015610ec55760405162461bcd60e51b815260206004820152600d60248201526c4241445f4c49515f424f4e555360981b6044820152606401610391565b612ee08361ffff161115610f0b5760405162461bcd60e51b815260206004820152600d60248201526c4241445f4c49515f424f4e555360981b6044820152606401610391565b6127108261ffff161115610f565760405162461bcd60e51b81526020600482015260126024820152712120a22fa922a9a2a92b22afa320a1aa27a960711b6044820152606401610391565b878160000160006101000a8154816001600160a01b0302191690836001600160a01b03160217905550868160010160006101000a8154816001600160a01b0302191690836001600160a01b03160217905550858160010160146101000a81548160ff021916908360ff1602179055506b033b2e3c9fd0803ce800000081600201819055506b033b2e3c9fd0803ce800000081600301819055506000816004018190555060008160050181905550428160060160006101000a81548164ffffffffff021916908364ffffffffff16021790555060018160060160056101000a81548160ff02191690831515021790555060008160060160066101000a81548160ff021916908315150217905550848160060160076101000a81548161ffff021916908361ffff160217905550838160060160096101000a81548161ffff021916908361ffff1602179055508281600601600b6101000a81548161ffff021916908361ffff1602179055508181600601600d6101000a81548161ffff021916908361ffff1602179055506001899080600181540180825580915050600190039060005260206000200160009091909190916101000a8154816001600160a01b0302191690836001600160a01b03160217905550866001600160a01b0316886001600160a01b03168a6001600160a01b03167f1d9fcd0dc935b4778d5af97f55c4d7b2553257382f1ef25c412114c8eeebd88e60405160405180910390a4505050505050505050565b606060018054806020026020016040519081016040528092919081815260200182805480156111d457602002820191906000526020600020905b81546001600160a01b031681526001909101906020018083116111b6575b5050505050905090565b6111e66120dc565b6111f06000612109565b565b600081116112125760405162461bcd60e51b815260040161039190612932565b6001600160a01b0382166112545760405162461bcd60e51b8152602060048201526009602482015268555345525f5a45524f60b81b6044820152606401610391565b6001600160a01b0380851660009081526002602052604080822086841683529120815491929091166112c85760405162461bcd60e51b815260206004820152601c60248201527f434f4c4c41544552414c5f524553455256455f4e4f545f464f554e44000000006044820152606401610391565b80546001600160a01b03166113185760405162461bcd60e51b81526020600482015260166024820152751111509517d49154d154959157d393d517d193d5539160521b6044820152606401610391565b6006820154600160281b900460ff16801561133e57506006810154600160281b900460ff165b61135a5760405162461bcd60e51b815260040161039190612985565b6006820154600160301b900460ff1615801561138257506006810154600160301b900460ff16155b61139e5760405162461bcd60e51b815260040161039190612a27565b6113a786611ba1565b856001600160a01b0316856001600160a01b0316146113c9576113c985611ba1565b604051633f9af35f60e21b81526001600160a01b0385166004820152600090309063fe6bcd7c90602401602060405180830381865afa158015611410573d6000803e3d6000fd5b505050506040513d601f19601f8201168201806040525081019061143491906129c8565b9050670de0b6b3a764000081106114805760405162461bcd60e51b815260206004820152601060248201526f2422a0a62a242cafa827a9a4aa24a7a760811b6044820152606401610391565b60018201546003830154604051630de9348b60e41b81526000926001600160a01b03169163de9348b0916114b8918a916004016129af565b602060405180830381865afa1580156114d5573d6000803e3d6000fd5b505050506040513d601f19601f820116820180604052508101906114f991906129c8565b9050600081116115355760405162461bcd60e51b81526020600482015260076024820152661393d7d111509560ca1b6044820152606401610391565b808510156115405750835b83546002850154604051630de9348b60e41b81526000926001600160a01b03169163de9348b091611575918b916004016129af565b602060405180830381865afa158015611592573d6000803e3d6000fd5b505050506040513d601f19601f820116820180604052508101906115b691906129c8565b9050600081116115f85760405162461bcd60e51b815260206004820152600d60248201526c1393d7d0d3d313105511549053609a1b6044820152606401610391565b600685015460009061162a908b9061162590600160581b900461ffff1661161f8d88611cc9565b90612159565b61216f565b905081811115611664575060068501548190611661908a9061162590600160581b900461ffff1661165b8e86611cc9565b90612355565b92505b600083116116845760405162461bcd60e51b815260040161039190612932565b845461169f906001600160a01b038b81169133911686611c8d565b60018501546003860154604051637a94c56560e11b81526000926001600160a01b03169163f5298aca916116da918d918991906004016129e1565b6020604051808303816000875af11580156116f9573d6000803e3d6000fd5b505050506040513d601f19601f8201168201806040525081019061171d91906129c8565b1161173a5760405162461bcd60e51b815260040161039190612a02565b85546002870154604051637a94c56560e11b81526000926001600160a01b03169163f5298aca91611772918d918791906004016129e1565b6020604051808303816000875af1158015611791573d6000803e3d6000fd5b505050506040513d601f19601f820116820180604052508101906117b591906129c8565b116117d25760405162461bcd60e51b815260040161039190612a02565b8554604051634efecaa560e01b81526001600160a01b0390911690634efecaa59061180390339085906004016129af565b600060405180830381600087803b15801561181d57600080fd5b505af1158015611831573d6000803e3d6000fd5b50505050886001600160a01b03168a6001600160a01b0316896001600160a01b03167fd58706648644be277f6999c826f65f98128c29c6846a892b929a304a7f19e3eb868560405161188d929190918252602082015260400190565b60405180910390a450505050505050505050565b60008060008060006118b286611ebc565b9297509095509350905060008490036118cf5760001991506118dc565b6118d98185612364565b91505b509193509193565b6118ec6120dc565b6001600160a01b03811661191657604051631e4fbdf760e01b815260006004820152602401610391565b61191f81612109565b50565b600081116119425760405162461bcd60e51b815260040161039190612932565b6001600160a01b038083166000908152600260205260409020805490911661197c5760405162461bcd60e51b81526004016103919061295a565b6006810154600160281b900460ff166119a75760405162461bcd60e51b815260040161039190612985565b6119b083611ba1565b80546002820154604051637a94c56560e11b81526000926001600160a01b03169163f5298aca916119e89133918891906004016129e1565b6020604051808303816000875af1158015611a07573d6000803e3d6000fd5b505050506040513d601f19601f82011682018060405250810190611a2b91906129c8565b905060008111611a4d5760405162461bcd60e51b815260040161039190612a02565b600080611a5933611ebc565b9350509250506000821115611ac8576000611a748284612364565b9050670de0b6b3a7640000811015611ac65760405162461bcd60e51b81526020600482015260156024820152744845414c54485f464143544f525f544f4f5f4c4f5760581b6044820152606401610391565b505b8354604051634efecaa560e01b81526001600160a01b0390911690634efecaa590611af990339089906004016129af565b600060405180830381600087803b158015611b1357600080fd5b505af1158015611b27573d6000803e3d6000fd5b50506040518781526001600160a01b03891692503391507f9b1bfa7fa9ee420a16e124f794c35ac9f90472acc99140eb2f6447c714cad8eb906020016105c4565b6000806000611b7684611ebc565b93505092505081600003611b8f57506000199392505050565b611b998183612364565b949350505050565b6001600160a01b0380821660009081526002602052604090208054909116611bdb5760405162461bcd60e51b81526004016103919061295a565b60068101544290600090611bfa9064ffffffffff908116908416612a78565b905080600003611c0a5750505050565b611c148382612379565b60068301805464ffffffffff191664ffffffffff8416908117909155600284015460038501546040805192835260208301919091528101919091526001600160a01b038516907f6e7d000591506e37cac1c97e15c07b4979a001854fc118f8183f770bcbd99b6f9060600160405180910390a250505050565b611c9b84848484600161240f565b611cc357604051635274afe760e01b81526001600160a01b0385166004820152602401610391565b50505050565b6001600160a01b03808316600090815260026020526040812080549192909116611d055760405162461bcd60e51b81526004016103919061295a565b6000611d22848360010160149054906101000a900460ff16612481565b60405163b3596f0760e01b81526001600160a01b0387811660048301529192506000917f0000000000000000000000000000000000000000000000000000000000000000169063b3596f0790602401602060405180830381865afa158015611d8e573d6000803e3d6000fd5b505050506040513d601f19601f82011682018060405250810190611db291906129c8565b905060007f00000000000000000000000000000000000000000000000000000000000000006001600160a01b031663f1a640f86040518163ffffffff1660e01b8152600401602060405180830381865afa158015611e14573d6000803e3d6000fd5b505050506040513d601f19601f82011682018060405250810190611e389190612a8b565b905060008160ff16601203611e4e575081611ea4565b60128260ff161015611e8157611e65826012612aa8565b611e7090600a612ba5565b611e7a9084612bb4565b9050611ea4565b611e8c601283612aa8565b611e9790600a612ba5565b611ea19084612be1565b90505b611eae84826124e8565b955050505050505b92915050565b60008060008060005b6001548110156118dc57600060018281548110611ee457611ee461291c565b60009182526020808320909101546001600160a01b039081168084526002909252604090922080549193509116611f1c5750506120d4565b80546002820154604051630de9348b60e41b81526000926001600160a01b03169163de9348b091611f51918d916004016129af565b602060405180830381865afa158015611f6e573d6000803e3d6000fd5b505050506040513d601f19601f82011682018060405250810190611f9291906129c8565b60018301546003840154604051630de9348b60e41b81529293506000926001600160a01b039092169163de9348b091611fd0918e91906004016129af565b602060405180830381865afa158015611fed573d6000803e3d6000fd5b505050506040513d601f19601f8201168201806040525081019061201191906129c8565b90508115801561201f575080155b1561202d57505050506120d4565b600080831161203d576000612047565b6120478584611cc9565b90506000808311612059576000612063565b6120638684611cc9565b905061206f828c612a65565b9a5061207b818b612a65565b6006860154909a50612099908390600160381b900461ffff16612159565b6120a3908a612a65565b60068601549099506120c1908390600160481b900461ffff16612159565b6120cb9089612a65565b97505050505050505b600101611ec5565b6000546001600160a01b031633146111f05760405163118cdaa760e01b8152336004820152602401610391565b600080546001600160a01b038381166001600160a01b0319831681178455604051919092169283917f8be0079c531659141344cd1fd0a4f28419497f9722a3daafe3b4186f6b6457e09190a35050565b600061216883836127106124f9565b9392505050565b6001600160a01b038083166000908152600260205260408120805491929091166121ab5760405162461bcd60e51b81526004016103919061295a565b60405163b3596f0760e01b81526001600160a01b0385811660048301526000917f00000000000000000000000000000000000000000000000000000000000000009091169063b3596f0790602401602060405180830381865afa158015612216573d6000803e3d6000fd5b505050506040513d601f19601f8201168201806040525081019061223a91906129c8565b905060007f00000000000000000000000000000000000000000000000000000000000000006001600160a01b031663f1a640f86040518163ffffffff1660e01b8152600401602060405180830381865afa15801561229c573d6000803e3d6000fd5b505050506040513d601f19601f820116820180604052508101906122c09190612a8b565b905060008160ff166012036122d657508161232c565b60128260ff161015612309576122ed826012612aa8565b6122f890600a612ba5565b6123029084612bb4565b905061232c565b612314601283612aa8565b61231f90600a612ba5565b6123299084612be1565b90505b60006123388783612364565b9050611eae818660010160149054906101000a900460ff16612618565b600061216883612710846124f9565b600061216883670de0b6b3a7640000846124f9565b80600003612385575050565b6004820154156123c85760006123af8284600401546123a49190612bb4565b600285015490612678565b90508083600201546123c19190612a65565b6002840155505b60058201541561240b5760006123f28284600501546123e79190612bb4565b600385015490612678565b90508083600301546124049190612a65565b6003840155505b5050565b6040516323b872dd60e01b60008181526001600160a01b038781166004528616602452604485905291602083606481808c5af19250600160005114831661246f578383151615612462573d6000823e3d81fd5b6000883b113d1516831692505b60405250600060605295945050505050565b60008160ff16601203612495575081611eb6565b60128260ff1610156124c8576124ac826012612aa8565b6124b790600a612ba5565b6124c19084612bb4565b9050611eb6565b6124d3601283612aa8565b6124de90600a612ba5565b6121689084612be1565b60006121688383670de0b6b3a76400005b6000816000036125395760405162461bcd60e51b815260206004820152600b60248201526a4449565f42595f5a45524f60a81b6044820152606401610391565b600080600019858709858702925082811083820303915050806000036125725783828161256857612568612bcb565b0492505050612168565b8084116125b05760405162461bcd60e51b815260206004820152600c60248201526b444956204f564552464c4f5760a01b6044820152606401610391565b600084868809600260036001881981018916988990049182028318808302840302808302840302808302840302808302840302808302840302918202909203026000889003889004909101858311909403939093029303949094049190911702949350505050565b60008160ff1660120361262c575081611eb6565b60128260ff16101561265857612643826012612aa8565b61264e90600a612ba5565b6124c19084612be1565b612663601283612aa8565b61266e90600a612ba5565b6121689084612bb4565b600061216883836b033b2e3c9fd0803ce80000006124f9565b6000602082840312156126a357600080fd5b5035919050565b80356001600160a01b03811681146126c157600080fd5b919050565b600080604083850312156126d957600080fd5b6126e2836126aa565b946020939093013593505050565b6000806040838503121561270357600080fd5b61270c836126aa565b915061271a602084016126aa565b90509250929050565b60006020828403121561273557600080fd5b612168826126aa565b6001600160a01b038d811682528c16602082015260ff8b1660408201528915156060820152881515608082015261ffff88811660a0830152871660c0820152610180810161ffff871660e083015261ffff861661010083015284610120830152836101408301526127b961016083018464ffffffffff169052565b9d9c50505050505050505050505050565b60ff8116811461191f57600080fd5b803561ffff811681146126c157600080fd5b600080600080600080600080610100898b03121561280857600080fd5b612811896126aa565b975061281f60208a016126aa565b965061282d60408a016126aa565b9550606089013561283d816127ca565b945061284b60808a016127d9565b935061285960a08a016127d9565b925061286760c08a016127d9565b915061287560e08a016127d9565b90509295985092959890939650565b6020808252825182820181905260009190848201906040850190845b818110156128c55783516001600160a01b0316835292840192918401916001016128a0565b50909695505050505050565b600080600080608085870312156128e757600080fd5b6128f0856126aa565b93506128fe602086016126aa565b925061290c604086016126aa565b9396929550929360600135925050565b634e487b7160e01b600052603260045260246000fd5b6020808252600e908201526d1253959053125117d05353d5539560921b604082015260600190565b602080825260119082015270149154d154959157d393d517d193d55391607a1b604082015260600190565b60208082526010908201526f524553455256455f494e41435449564560801b604082015260600190565b6001600160a01b03929092168252602082015260400190565b6000602082840312156129da57600080fd5b5051919050565b6001600160a01b039390931683526020830191909152604082015260600190565b6020808252600b908201526a1095549397d1905253115160aa1b604082015260600190565b6020808252600e908201526d2922a9a2a92b22afa32927ad22a760911b604082015260600190565b634e487b7160e01b600052601160045260246000fd5b80820180821115611eb657611eb6612a4f565b81810381811115611eb657611eb6612a4f565b600060208284031215612a9d57600080fd5b8151612168816127ca565b60ff8281168282160390811115611eb657611eb6612a4f565b600181815b80851115612afc578160001904821115612ae257612ae2612a4f565b80851615612aef57918102915b93841c9390800290612ac6565b509250929050565b600082612b1357506001611eb6565b81612b2057506000611eb6565b8160018114612b365760028114612b4057612b5c565b6001915050611eb6565b60ff841115612b5157612b51612a4f565b50506001821b611eb6565b5060208310610133831016604e8410600b8410161715612b7f575081810a611eb6565b612b898383612ac1565b8060001904821115612b9d57612b9d612a4f565b029392505050565b600061216860ff841683612b04565b8082028115828204841417611eb657611eb6612a4f565b634e487b7160e01b600052601260045260246000fd5b600082612bfe57634e487b7160e01b600052601260045260246000fd5b50049056fea264697066735822122091e30e30af4f9f3290cf0f58206f20cd205bf7f9b6af07044b75f94ad3c152d664736f6c63430008180033",
  "linkReferences": {},
  "deployedLinkReferences": {}
}