{
  "_format": "hh-sol-artifact-1",
  "contractName": "LendingPool",
  "sourceName": "contracts/core/LendingPool.sol",
  "abi": [
    {
      "inputs": [
        {
          "internalType": "address",
          "name": "oracle",
          "type": "address"
        },
        {
          "internalType": "address",
          "name": "owner_",
          "type": "address"
        }
      ],
      "stateMutability": "nonpayable",
      "type": "constructor"
    },
    {
      "inputs": [
        {
          "internalType": "address",
          "name": "owner",
          "type": "address"
        }
      ],
      "name": "OwnableInvalidOwner",
      "type": "error"
    },
    {
      "inputs": [
        {
          "internalType": "address",
          "name": "account",
          "type": "address"
        }
      ],
      "name": "OwnableUnauthorizedAccount",
      "type": "error"
    },
    {
      "inputs": [
        {
          "internalType": "address",
          "name": "token",
          "type": "address"
        }
      ],
      "name": "SafeERC20FailedOperation",
      "type": "error"
    },
    {
      "anonymous": false,
      "inputs": [
        {
          "indexed": true,
          "internalType": "address",
          "name": "user",
          "type": "address"
        },
        {
          "indexed": true,
          "internalType": "address",
          "name": "asset",
          "type": "address"
        },
        {
          "indexed": false,
          "internalType": "uint256",
          "name": "amount",
          "type": "uint256"
        }
      ],
      "name": "Borrow",
      "type": "event"
    },
    {
      "anonymous": false,
      "inputs": [
        {
          "indexed": true,
          "internalType": "address",
          "name": "user",
          "type": "address"
        },
        {
          "indexed": true,
          "internalType": "address",
          "name": "asset",
          "type": "address"
        },
        {
          "indexed": false,
          "internalType": "uint256",
          "name": "amount",
          "type": "uint256"
        }
      ],
      "name": "Deposit",
      "type": "event"
    },
    {
      "anonymous": false,
      "inputs": [
        {
          "indexed": true,
          "internalType": "address",
          "name": "liquidator",
          "type": "address"
        },
        {
          "indexed": true,
          "internalType": "address",
          "name": "user",
          "type": "address"
        },
        {
          "indexed": true,
          "internalType": "address",
          "name": "collateralAsset",
          "type": "address"
        },
        {
          "indexed": false,
          "internalType": "address",
          "name": "debtAsset",
          "type": "address"
        },
        {
          "indexed": false,
          "internalType": "uint256",
          "name": "debtCovered",
          "type": "uint256"
        },
        {
          "indexed": false,
          "internalType": "uint256",
          "name": "collateralSeized",
          "type": "uint256"
        }
      ],
      "name": "Liquidation",
      "type": "event"
    },
    {
      "anonymous": false,
      "inputs": [
        {
          "indexed": true,
          "internalType": "address",
          "name": "previousOwner",
          "type": "address"
        },
        {
          "indexed": true,
          "internalType": "address",
          "name": "newOwner",
          "type": "address"
        }
      ],
      "name": "OwnershipTransferred",
      "type": "event"
    },
    {
      "anonymous": false,
      "inputs": [
        {
          "indexed": true,
          "internalType": "address",
          "name": "user",
          "type": "address"
        },
        {
          "indexed": true,
          "internalType": "address",
          "name": "asset",
          "type": "address"
        },
        {
          "indexed": false,
          "internalType": "uint256",
          "name": "amount",
          "type": "uint256"
        }
      ],
      "name": "Repay",
      "type": "event"
    },
    {
      "anonymous": false,
      "inputs": [
        {
          "indexed": true,
          "internalType": "address",
          "name": "asset",
          "type": "address"
        },
        {
          "indexed": true,
          "internalType": "address",
          "name": "aToken",
          "type": "address"
        },
        {
          "indexed": true,
          "internalType": "address",
          "name": "debtToken",
          "type": "address"
        },
        {
          "indexed": false,
          "internalType": "address",
          "name": "interestRateStrategy",
          "type": "address"
        }
      ],
      "name": "ReserveInitialized",
      "type": "event"
    },
    {
      "anonymous": false,
      "inputs": [
        {
          "indexed": true,
          "internalType": "address",
          "name": "asset",
          "type": "address"
        },
        {
          "indexed": false,
          "internalType": "uint256",
          "name": "liquidityIndexRay",
          "type": "uint256"
        },
        {
          "indexed": false,
          "internalType": "uint256",
          "name": "borrowIndexRay",
          "type": "uint256"
        },
        {
          "indexed": false,
          "internalType": "uint256",
          "name": "liquidityRateRayPerSecond",
          "type": "uint256"
        },
        {
          "indexed": false,
          "internalType": "uint256",
          "name": "borrowRateRayPerSecond",
          "type": "uint256"
        },
        {
          "indexed": false,
          "internalType": "uint40",
          "name": "timestamp",
          "type": "uint40"
        }
      ],
      "name": "ReserveUpdated",
      "type": "event"
    },
    {
      "anonymous": false,
      "inputs": [
        {
          "indexed": true,
          "internalType": "address",
          "name": "user",
          "type": "address"
        },
        {
          "indexed": true,
          "internalType": "address",
          "name": "asset",
          "type": "address"
        },
        {
          "indexed": false,
          "internalType": "uint256",
          "name": "amount",
          "type": "uint256"
        }
      ],
      "name": "Withdraw",
      "type": "event"
    },
    {
      "inputs": [
        {
          "internalType": "address",
          "name": "asset",
          "type": "address"
        },
        {
          "internalType": "uint256",
          "name": "amount",
          "type": "uint256"
        }
      ],
      "name": "borrow",
      "outputs": [],
      "stateMutability": "nonpayable",
      "type": "function"
    },
    {
      "inputs": [
        {
          "internalType": "address",
          "name": "asset",
          "type": "address"
        },
        {
          "internalType": "uint256",
          "name": "amount",
          "type": "uint256"
        }
      ],
      "name": "deposit",
      "outputs": [],
      "stateMutability": "nonpayable",
      "type": "function"
    },
    {
      "inputs": [
        {
          "internalType": "address",
          "name": "user",
          "type": "address"
        }
      ],
      "name": "getHealthFactor",
      "outputs": [
        {
          "internalType": "uint256",
          "name": "",
          "type": "uint256"
        }
      ],
      "stateMutability": "view",
      "type": "function"
    },
    {
      "inputs": [
        {
          "internalType": "uint256",
          "name": "index",
          "type": "uint256"
        }
      ],
      "name": "getReserveAt",
      "outputs": [
        {
          "internalType": "address",
          "name": "",
          "type": "address"
        }
      ],
      "stateMutability": "view",
      "type": "function"
    },
    {
      "inputs": [],
      "name": "getReserveCount",
      "outputs": [
        {
          "internalType": "uint256",
          "name": "",
          "type": "uint256"
        }
      ],
      "stateMutability": "view",
      "type": "function"
    },
    {
      "inputs": [
        {
          "internalType": "address",
          "name": "asset",
          "type": "address"
        }
      ],
      "name": "getReserveData",
      "outputs": [
        {
          "internalType": "address",
          "name": "aToken",
          "type": "address"
        },
        {
          "internalType": "address",
          "name": "debtToken",
          "type": "address"
        },
        {
          "internalType": "uint8",
          "name": "assetDecimals",
          "type": "uint8"
        },
        {
          "internalType": "bool",
          "name": "isActive",
          "type": "bool"
        },
        {
          "internalType": "bool",
          "name": "isFrozen",
          "type": "bool"
        },
        {
          "internalType": "uint16",
          "name": "ltvBps",
          "type": "uint16"
        },
        {
          "internalType": "uint16",
          "name": "liquidationThresholdBps",
          "type": "uint16"
        },
        {
          "internalType": "uint16",
          "name": "liquidationBonusBps",
          "type": "uint16"
        },
        {
          "internalType": "uint16",
          "name": "reserveFactorBps",
          "type": "uint16"
        },
        {
          "internalType": "uint256",
          "name": "liquidityIndexRay",
          "type": "uint256"
        },
        {
          "internalType": "uint256",
          "name": "borrowIndexRay",
          "type": "uint256"
        },
        {
          "internalType": "uint40",
          "name": "lastUpdateTimestamp",
          "type": "uint40"
        }
      ],
      "stateMutability": "view",
      "type": "function"
    },
    {
      "inputs": [
        {
          "internalType": "address",
          "name": "asset",
          "type": "address"
        }
      ],
      "name": "getReserveInterestRateStrategy",
      "outputs": [
        {
          "internalType": "address",
          "name": "",
          "type": "address"
        }
      ],
      "stateMutability": "view",
      "type": "function"
    },
    {
      "inputs": [],
      "name": "getReserveList",
      "outputs": [
        {
          "internalType": "address[]",
          "name": "",
          "type": "address[]"
        }
      ],
      "stateMutability": "view",
      "type": "function"
    },
    {
      "inputs": [
        {
          "internalType": "address",
          "name": "asset",
          "type": "address"
        }
      ],
      "name": "getReserveRates",
      "outputs": [
        {
          "internalType": "uint256",
          "name": "liquidityRateRayPerSecond",
          "type": "uint256"
        },
        {
          "internalType": "uint256",
          "name": "borrowRateRayPerSecond",
          "type": "uint256"
        }
      ],
      "stateMutability": "view",
      "type": "function"
    },
    {
      "inputs": [
        {
          "internalType": "address",
          "name": "user",
          "type": "address"
        }
      ],
      "name": "getUserAccountData",
      "outputs": [
        {
          "internalType": "uint256",
          "name": "collateralUsdWad",
          "type": "uint256"
        },
        {
          "internalType": "uint256",
          "name": "debtUsdWad",
          "type": "uint256"
        },
        {
          "internalType": "uint256",
          "name": "maxBorrowUsdWad",
          "type": "uint256"
        },
        {
          "internalType": "uint256",
          "name": "healthFactorWad",
          "type": "uint256"
        }
      ],
      "stateMutability": "view",
      "type": "function"
    },
    {
      "inputs": [
        {
          "internalType": "address",
          "name": "user",
          "type": "address"
        },
        {
          "internalType": "address",
          "name": "asset",
          "type": "address"
        }
      ],
      "name": "getUserReserveData",
      "outputs": [
        {
          "internalType": "uint256",
          "name": "collateralAmount",
          "type": "uint256"
        },
        {
          "internalType": "uint256",
          "name": "debtAmount",
          "type": "uint256"
        },
        {
          "internalType": "uint256",
          "name": "collateralUsdWad",
          "type": "uint256"
        },
        {
          "internalType": "uint256",
          "name": "debtUsdWad",
          "type": "uint256"
        }
      ],
      "stateMutability": "view",
      "type": "function"
    },
    {
      "inputs": [
        {
          "internalType": "address",
          "name": "asset",
          "type": "address"
        },
        {
          "internalType": "address",
          "name": "aToken",
          "type": "address"
        },
        {
          "internalType": "address",
          "name": "debtToken",
          "type": "address"
        },
        {
          "internalType": "address",
          "name": "interestRateStrategy",
          "type": "address"
        },
        {
          "internalType": "uint8",
          "name": "assetDecimals",
          "type": "uint8"
        },
        {
          "internalType": "uint16",
          "name": "ltvBps",
          "type": "uint16"
        },
        {
          "internalType": "uint16",
          "name": "liquidationThresholdBps",
          "type": "uint16"
        },
        {
          "internalType": "uint16",
          "name": "liquidationBonusBps",
          "type": "uint16"
        },
        {
          "internalType": "uint16",
          "name": "reserveFactorBps",
          "type": "uint16"
        }
      ],
      "name": "initReserve",
      "outputs": [],
      "stateMutability": "nonpayable",
      "type": "function"
    },
    {
      "inputs": [
        {
          "internalType": "address",
          "name": "collateralAsset",
          "type": "address"
        },
        {
          "internalType": "address",
          "name": "debtAsset",
          "type": "address"
        },
        {
          "internalType": "address",
          "name": "user",
          "type": "address"
        },
        {
          "internalType": "uint256",
          "name": "debtToCover",
          "type": "uint256"
        }
      ],
      "name": "liquidate",
      "outputs": [],
      "stateMutability": "nonpayable",
      "type": "function"
    },
    {
      "inputs": [],
      "name": "owner",
      "outputs": [
        {
          "internalType": "address",
          "name": "",
          "type": "address"
        }
      ],
      "stateMutability": "view",
      "type": "function"
    },
    {
      "inputs": [],
      "name": "priceOracle",
      "outputs": [
        {
          "internalType": "contract IPriceOracle",
          "name": "",
          "type": "address"
        }
      ],
      "stateMutability": "view",
      "type": "function"
    },
    {
      "inputs": [],
      "name": "renounceOwnership",
      "outputs": [],
      "stateMutability": "nonpayable",
      "type": "function"
    },
    {
      "inputs": [
        {
          "internalType": "address",
          "name": "asset",
          "type": "address"
        },
        {
          "internalType": "uint256",
          "name": "amount",
          "type": "uint256"
        }
      ],
      "name": "repay",
      "outputs": [],
      "stateMutability": "nonpayable",
      "type": "function"
    },
    {
      "inputs": [
        {
          "internalType": "address",
          "name": "newOwner",
          "type": "address"
        }
      ],
      "name": "transferOwnership",
      "outputs": [],
      "stateMutability": "nonpayable",
      "type": "function"
    },
    {
      "inputs": [
        {
          "internalType": "address",
          "name": "asset",
          "type": "address"
        },
        {
          "internalType": "uint256",
          "name": "amount",
          "type": "uint256"
        }
      ],
      "name": "withdraw",
      "outputs": [],
      "stateMutability": "nonpayable",
      "type": "function"
    }
  ],
  "bytecode": "0x60a06040523480156200001157600080fd5b506040516200301038038062003010833981016040819052620000349162000137565b806001600160a01b0381166200006557604051631e4fbdf760e01b8152600060048201526024015b60405180910390fd5b6200007081620000ca565b506001600160a01b038216620000b75760405162461bcd60e51b815260206004820152600b60248201526a4f5241434c455f5a45524f60a81b60448201526064016200005c565b506001600160a01b03166080526200016f565b600080546001600160a01b038381166001600160a01b0319831681178455604051919092169283917f8be0079c531659141344cd1fd0a4f28419497f9722a3daafe3b4186f6b6457e09190a35050565b80516001600160a01b03811681146200013257600080fd5b919050565b600080604083850312156200014b57600080fd5b62000156836200011a565b915062000166602084016200011a565b90509250929050565b608051612e7762000199600039600081816101a00152818161254e01526125bf0152612e776000f3fe608060405234801561001057600080fd5b50600436106101215760003560e01c8063715018a6116100ad578063b5e3165211610071578063b5e31652146102ac578063bf92857c146102f5578063f2fde38b14610308578063f3fef3a31461031b578063fe6bcd7c1461032e57600080fd5b8063715018a61461025b5780638da5cb5b146102635780639980654614610274578063aab3f86814610286578063acfaa9bf1461029957600080fd5b806328dd2d01116100f457806328dd2d01146101c257806335ea6a75146101f557806347e7ef24146102205780634b8a35291461023357806366d4c4131461024657600080fd5b80630268a66114610126578063107c04181461017357806322867d78146101865780632630c12f1461019b575b600080fd5b6101566101343660046128b6565b6001600160a01b03908116600090815260026020819052604090912001541690565b6040516001600160a01b0390911681526020015b60405180910390f35b6101566101813660046128d1565b610341565b6101996101943660046128ea565b610371565b005b6101567f000000000000000000000000000000000000000000000000000000000000000081565b6101d56101d0366004612914565b6105df565b60408051948552602085019390935291830152606082015260800161016a565b6102086102033660046128b6565b610766565b60405161016a9c9b9a99989796959493929190612947565b61019961022e3660046128ea565b61084d565b6101996102413660046128ea565b610a2d565b61024e610d8e565b60405161016a91906129d3565b610199610df0565b6000546001600160a01b0316610156565b6001545b60405190815260200161016a565b610199610294366004612a20565b610e04565b6101996102a7366004612a8c565b611106565b6102e06102ba3660046128b6565b6001600160a01b0316600090815260026020526040902060058101546006909101549091565b6040805192835260208301919091520161016a565b6101d56103033660046128b6565b611694565b6101996103163660046128b6565b6116d2565b6101996103293660046128ea565b611710565b61027861033c3660046128b6565b611959565b60006001828154811061035657610356612b36565b6000918252602090912001546001600160a01b031692915050565b6000811161039a5760405162461bcd60e51b815260040161039190612b4c565b60405180910390fd5b6001600160a01b03808316600090815260026020526040902080549091166103d45760405162461bcd60e51b815260040161039190612b74565b6007810154600160281b900460ff166103ff5760405162461bcd60e51b815260040161039190612b9f565b61040883611992565b6001810154600480830154604051630de9348b60e41b81526000936001600160a01b03169263de9348b09261043f92339201612bc9565b602060405180830381865afa15801561045c573d6000803e3d6000fd5b505050506040513d601f19601f820116820180604052508101906104809190612be2565b9050600081116104bc5760405162461bcd60e51b81526020600482015260076024820152661393d7d111509560ca1b6044820152606401610391565b6000818410156104cc57836104ce565b815b6001840154600480860154604051637a94c56560e11b81529394506000936001600160a01b039093169263f5298aca9261050c923392889201612bfb565b6020604051808303816000875af115801561052b573d6000803e3d6000fd5b505050506040513d601f19601f8201168201806040525081019061054f9190612be2565b9050600081116105715760405162461bcd60e51b815260040161039190612c1c565b835461058c906001600160a01b038881169133911685611a7f565b6105968685611abb565b6040518281526001600160a01b0387169033907f05f2eeda0e08e4b437f487c8d7d29b14537d15e3488170dc3de5dbdf8dac4684906020015b60405180910390a3505050505050565b6001600160a01b038082166000908152600260205260408120805491928392839283929091166106215760405162461bcd60e51b815260040161039190612b74565b600061062c82611c4b565b9050600061063983611cc3565b8354604051630de9348b60e41b81529192506001600160a01b03169063de9348b09061066b908c908690600401612bc9565b602060405180830381865afa158015610688573d6000803e3d6000fd5b505050506040513d601f19601f820116820180604052508101906106ac9190612be2565b6001840154604051630de9348b60e41b81529198506001600160a01b03169063de9348b0906106e1908c908590600401612bc9565b602060405180830381865afa1580156106fe573d6000803e3d6000fd5b505050506040513d601f19601f820116820180604052508101906107229190612be2565b95506000871161073357600061073d565b61073d8888611d3b565b94506000861161074e576000610758565b6107588887611d3b565b935050505092959194509250565b6001600160a01b03808216600090815260026020819052604082208054600182015492820154600783015494958695869586958695869586958695869586958695869591949081169392169160ff600160a01b909204821691600160281b8204811691600160301b81049091169061ffff600160381b8204811691600160481b8104821691600160581b8204811691600160681b9004166108068a611c4b565b61080f8b611cc3565b8b60070160009054906101000a900464ffffffffff169c509c509c509c509c509c509c509c509c509c509c509c505091939597999b5091939597999b565b6000811161086d5760405162461bcd60e51b815260040161039190612b4c565b6001600160a01b03808316600090815260026020526040902080549091166108a75760405162461bcd60e51b815260040161039190612b74565b6007810154600160281b900460ff166108d25760405162461bcd60e51b815260040161039190612b9f565b6007810154600160301b900460ff16156108fe5760405162461bcd60e51b815260040161039190612c41565b61090783611992565b8054610922906001600160a01b038581169133911685611a7f565b80546003820154604051630ab714fb60e11b81526000926001600160a01b03169163156e29f69161095a913391889190600401612bfb565b6020604051808303816000875af1158015610979573d6000803e3d6000fd5b505050506040513d601f19601f8201168201806040525081019061099d9190612be2565b9050600081116109dd5760405162461bcd60e51b815260206004820152600b60248201526a1352539517d1905253115160aa1b6044820152606401610391565b6109e78483611abb565b6040518381526001600160a01b0385169033907f5548c837ab068cf56a2c2479df0882a4922fd203edb7517321831d95078c5f629060200160405180910390a350505050565b60008111610a4d5760405162461bcd60e51b815260040161039190612b4c565b6001600160a01b0380831660009081526002602052604090208054909116610a875760405162461bcd60e51b815260040161039190612b74565b6007810154600160281b900460ff16610ab25760405162461bcd60e51b815260040161039190612b9f565b6007810154600160301b900460ff1615610ade5760405162461bcd60e51b815260040161039190612c41565b610ae783611992565b80546040516370a0823160e01b81526001600160a01b0391821660048201526000918516906370a0823190602401602060405180830381865afa158015610b32573d6000803e3d6000fd5b505050506040513d601f19601f82011682018060405250810190610b569190612be2565b905082811015610ba15760405162461bcd60e51b8152602060048201526016602482015275494e53554646494349454e545f4c495155494449545960501b6044820152606401610391565b600080610bad33611d95565b5092509250506000610bbf8787611d3b565b905081610bcc8285612c7f565b1115610c1a5760405162461bcd60e51b815260206004820152601760248201527f494e53554646494349454e545f434f4c4c41544552414c0000000000000000006044820152606401610391565b6001850154600480870154604051630ab714fb60e11b81526000936001600160a01b03169263156e29f692610c549233928d929101612bfb565b6020604051808303816000875af1158015610c73573d6000803e3d6000fd5b505050506040513d601f19601f82011682018060405250810190610c979190612be2565b905060008111610cd75760405162461bcd60e51b815260206004820152600b60248201526a1352539517d1905253115160aa1b6044820152606401610391565b8554604051634efecaa560e01b81526001600160a01b0390911690634efecaa590610d089033908b90600401612bc9565b600060405180830381600087803b158015610d2257600080fd5b505af1158015610d36573d6000803e3d6000fd5b50505050610d448887611abb565b6040518781526001600160a01b0389169033907f312a5e5e1079f5dda4e95dbbd0b908b291fd5b992ef22073643ab691572c5b529060200160405180910390a35050505050505050565b60606001805480602002602001604051908101604052809291908181526020018280548015610de657602002820191906000526020600020905b81546001600160a01b03168152600190910190602001808311610dc8575b5050505050905090565b610df8611fba565b610e026000611fe7565b565b60008111610e245760405162461bcd60e51b815260040161039190612b4c565b6001600160a01b038216610e665760405162461bcd60e51b8152602060048201526009602482015268555345525f5a45524f60b81b6044820152606401610391565b610e71848484612037565b6001600160a01b03808516600090815260026020526040808220928616825281209080610ea2888888888888612254565b9150915060008211610ec65760405162461bcd60e51b815260040161039190612b4c565b8254610ee1906001600160a01b038981169133911685611a7f565b6001830154600480850154604051637a94c56560e11b81526000936001600160a01b03169263f5298aca92610f1b928c9289929101612bfb565b6020604051808303816000875af1158015610f3a573d6000803e3d6000fd5b505050506040513d601f19601f82011682018060405250810190610f5e9190612be2565b11610f7b5760405162461bcd60e51b815260040161039190612c1c565b83546003850154604051637a94c56560e11b81526000926001600160a01b03169163f5298aca91610fb3918b91879190600401612bfb565b6020604051808303816000875af1158015610fd2573d6000803e3d6000fd5b505050506040513d601f19601f82011682018060405250810190610ff69190612be2565b116110135760405162461bcd60e51b815260040161039190612c1c565b8354604051634efecaa560e01b81526001600160a01b0390911690634efecaa5906110449033908590600401612bc9565b600060405180830381600087803b15801561105e57600080fd5b505af1158015611072573d6000803e3d6000fd5b505050506110808784611abb565b876001600160a01b0316876001600160a01b0316146110a3576110a38885611abb565b876001600160a01b0316866001600160a01b0316336001600160a01b03167f64f7c2c46814e079964a1934953e50adc025dc52cdbeb7d8e478e9fb9bfd2c2d8a86866040516110f493929190612bfb565b60405180910390a45050505050505050565b61110e611fba565b6001600160a01b0389166111515760405162461bcd60e51b815260206004820152600a60248201526941535345545f5a45524f60b01b6044820152606401610391565b6001600160a01b0388166111955760405162461bcd60e51b815260206004820152600b60248201526a41544f4b454e5f5a45524f60a81b6044820152606401610391565b6001600160a01b0387166111dd5760405162461bcd60e51b815260206004820152600f60248201526e444542545f544f4b454e5f5a45524f60881b6044820152606401610391565b6001600160a01b0386166112235760405162461bcd60e51b815260206004820152600d60248201526c53545241544547595f5a45524f60981b6044820152606401610391565b60128560ff16111561126b5760405162461bcd60e51b81526020600482015260116024820152700888a86929a8298a6bea89e9ebe90928e9607b1b6044820152606401610391565b6127108361ffff1611156112b55760405162461bcd60e51b815260206004820152601160248201527010905117d3125457d512149154d213d311607a1b6044820152606401610391565b8261ffff168461ffff1611156112f75760405162461bcd60e51b81526020600482015260076024820152662120a22fa62a2b60c91b6044820152606401610391565b6127108261ffff16101561133d5760405162461bcd60e51b815260206004820152600d60248201526c4241445f4c49515f424f4e555360981b6044820152606401610391565b612ee08261ffff1611156113835760405162461bcd60e51b815260206004820152600d60248201526c4241445f4c49515f424f4e555360981b6044820152606401610391565b6127108161ffff1611156113ce5760405162461bcd60e51b81526020600482015260126024820152712120a22fa922a9a2a92b22afa320a1aa27a960711b6044820152606401610391565b6001600160a01b03808a16600090815260026020526040902080549091161561142a5760405162461bcd60e51b815260206004820152600e60248201526d524553455256455f45584953545360901b6044820152606401610391565b888160000160006101000a8154816001600160a01b0302191690836001600160a01b03160217905550878160010160006101000a8154816001600160a01b0302191690836001600160a01b03160217905550868160020160006101000a8154816001600160a01b0302191690836001600160a01b03160217905550858160020160146101000a81548160ff021916908360ff1602179055506b033b2e3c9fd0803ce800000081600301819055506b033b2e3c9fd0803ce800000081600401819055506000816005018190555060008160060181905550428160070160006101000a81548164ffffffffff021916908364ffffffffff16021790555060018160070160056101000a81548160ff02191690831515021790555060008160070160066101000a81548160ff021916908315150217905550848160070160076101000a81548161ffff021916908361ffff160217905550838160070160096101000a81548161ffff021916908361ffff1602179055508281600701600b6101000a81548161ffff021916908361ffff1602179055508181600701600d6101000a81548161ffff021916908361ffff16021790555060018a9080600181540180825580915050600190039060005260206000200160009091909190916101000a8154816001600160a01b0302191690836001600160a01b03160217905550876001600160a01b0316896001600160a01b03168b6001600160a01b03167f2a069b08eadd1ba3aeb05729cf22947a941b9f400cfc778be430b52a946372828a60405161168091906001600160a01b0391909116815260200190565b60405180910390a450505050505050505050565b60008060008060006116a586611d95565b9297509095509350905083156116c4576116bf818561241c565b6116c8565b6000195b9150509193509193565b6116da611fba565b6001600160a01b03811661170457604051631e4fbdf760e01b815260006004820152602401610391565b61170d81611fe7565b50565b600081116117305760405162461bcd60e51b815260040161039190612b4c565b6001600160a01b038083166000908152600260205260409020805490911661176a5760405162461bcd60e51b815260040161039190612b74565b6007810154600160281b900460ff166117955760405162461bcd60e51b815260040161039190612b9f565b61179e83611992565b80546003820154604051637a94c56560e11b81526000926001600160a01b03169163f5298aca916117d6913391889190600401612bfb565b6020604051808303816000875af11580156117f5573d6000803e3d6000fd5b505050506040513d601f19601f820116820180604052508101906118199190612be2565b90506000811161183b5760405162461bcd60e51b815260040161039190612c1c565b60008061184733611d95565b93505092505060008211156118af57670de0b6b3a7640000611869828461241c565b10156118af5760405162461bcd60e51b81526020600482015260156024820152744845414c54485f464143544f525f544f4f5f4c4f5760581b6044820152606401610391565b8354604051634efecaa560e01b81526001600160a01b0390911690634efecaa5906118e09033908990600401612bc9565b600060405180830381600087803b1580156118fa57600080fd5b505af115801561190e573d6000803e3d6000fd5b5050505061191c8685611abb565b6040518581526001600160a01b0387169033907f9b1bfa7fa9ee420a16e124f794c35ac9f90472acc99140eb2f6447c714cad8eb906020016105cf565b600080600061196784611d95565b9350509250508160000361198057506000199392505050565b61198a818361241c565b949350505050565b6001600160a01b03811660009081526002602052604081206007810154909142916119c89064ffffffffff908116908416612c92565b9050806000036119d85750505050565b6119e183611c4b565b60038401556119ef83611cc3565b6004840181905560078401805464ffffffffff191664ffffffffff851690811790915560038501546005860154600687015460408051938452602084019590955293820152606081019290925260808201526001600160a01b038516907f7f4d37ee745decda556a078e1cfd443d829c50710be5772bd9fb67e63e1317599060a00160405180910390a250505050565b611a8d848484846001612438565b611ab557604051635274afe760e01b81526001600160a01b0385166004820152602401610391565b50505050565b80546040516370a0823160e01b81526001600160a01b0391821660048201526000918416906370a0823190602401602060405180830381865afa158015611b06573d6000803e3d6000fd5b505050506040513d601f19601f82011682018060405250810190611b2a9190612be2565b6001830154600480850154604051638da78feb60e01b8152918201529192506000916001600160a01b0390911690638da78feb90602401602060405180830381865afa158015611b7e573d6000803e3d6000fd5b505050506040513d601f19601f82011682018060405250810190611ba29190612be2565b60028401546007850154604051630f4de01160e21b81526004810186905260248101849052600160681b90910461ffff16604482015291925060009182916001600160a01b031690633d378044906064016040805180830381865afa158015611c0f573d6000803e3d6000fd5b505050506040513d601f19601f82011682018060405250810190611c339190612ca5565b60058701919091556006909501949094555050505050565b60008160050154600003611c6157506003015490565b6007820154600090611c7e9064ffffffffff908116904216612c92565b905080600003611c915750506003015490565b6000611cb1828560050154611ca69190612cc9565b6003860154906124aa565b905080846003015461198a9190612c7f565b60008160060154600003611cd957506004015490565b6007820154600090611cf69064ffffffffff908116904216612c92565b905080600003611d095750506004015490565b6000611d29828560060154611d1e9190612cc9565b6004860154906124aa565b905080846004015461198a9190612c7f565b6001600160a01b03821660009081526002602081905260408220908101548290611d70908590600160a01b900460ff166124c3565b90506000611d7d8661252a565b9050611d89828261269f565b93505050505b92915050565b600154600090819081908190815b81811015611fb157600060018281548110611dc057611dc0612b36565b60009182526020808320909101546001600160a01b0390811680845260029092526040808420805460038201549251630de9348b60e41b815294965090949392169163de9348b091611e17918e9190600401612bc9565b602060405180830381865afa158015611e34573d6000803e3d6000fd5b505050506040513d601f19601f82011682018060405250810190611e589190612be2565b905060008260010160009054906101000a90046001600160a01b03166001600160a01b031663de9348b08c85600401546040518363ffffffff1660e01b8152600401611ea5929190612bc9565b602060405180830381865afa158015611ec2573d6000803e3d6000fd5b505050506040513d601f19601f82011682018060405250810190611ee69190612be2565b905081158015611ef4575080155b15611f025750505050611fa9565b6000808311611f12576000611f1c565b611f1c8584611d3b565b90506000808311611f2e576000611f38565b611f388684611d3b565b9050611f44828d612c7f565b9b50611f50818c612c7f565b6007860154909b50611f6e908390600160381b900461ffff166126b4565b611f78908b612c7f565b6007860154909a50611f96908390600160481b900461ffff166126b4565b611fa0908a612c7f565b98505050505050505b600101611da3565b50509193509193565b6000546001600160a01b03163314610e025760405163118cdaa760e01b8152336004820152602401610391565b600080546001600160a01b038381166001600160a01b0319831681178455604051919092169283917f8be0079c531659141344cd1fd0a4f28419497f9722a3daafe3b4186f6b6457e09190a35050565b6001600160a01b0380841660009081526002602052604080822085841683529120815491929091166120ab5760405162461bcd60e51b815260206004820152601c60248201527f434f4c4c41544552414c5f524553455256455f4e4f545f464f554e44000000006044820152606401610391565b80546001600160a01b03166120fb5760405162461bcd60e51b81526020600482015260166024820152751111509517d49154d154959157d393d517d193d5539160521b6044820152606401610391565b6007820154600160281b900460ff16801561212157506007810154600160281b900460ff165b61213d5760405162461bcd60e51b815260040161039190612b9f565b6007820154600160301b900460ff1615801561216557506007810154600160301b900460ff16155b6121815760405162461bcd60e51b815260040161039190612c41565b61218a85611992565b846001600160a01b0316846001600160a01b0316146121ac576121ac84611992565b6000806121b885611d95565b935050925050600082116121f85760405162461bcd60e51b81526020600482015260076024820152661393d7d111509560ca1b6044820152606401610391565b670de0b6b3a764000061220b828461241c565b1061224b5760405162461bcd60e51b815260206004820152601060248201526f2422a0a62a242cafa827a9a4aa24a7a760811b6044820152606401610391565b50505050505050565b6001810154600480830154604051630de9348b60e41b8152600093849384936001600160a01b039092169263de9348b092612291928c9201612bc9565b602060405180830381865afa1580156122ae573d6000803e3d6000fd5b505050506040513d601f19601f820116820180604052508101906122d29190612be2565b9050808610156122e257856122e4565b805b85546003870154604051630de9348b60e41b81529295506000926001600160a01b039092169163de9348b09161231f918c9190600401612bc9565b602060405180830381865afa15801561233c573d6000803e3d6000fd5b505050506040513d601f19601f820116820180604052508101906123609190612be2565b9050600081116123a25760405162461bcd60e51b815260206004820152600d60248201526c1393d7d0d3d313105511549053609a1b6044820152606401610391565b60078601546123d1908b906123cc90600160581b900461ffff166123c68d89611d3b565b906126b4565b6126c3565b92508083111561240f5780925061240c896123cc88600701600b9054906101000a900461ffff1661ffff166124068e88611d3b565b90612710565b93505b5050965096945050505050565b600061243183670de0b6b3a76400008461271b565b9392505050565b6040516323b872dd60e01b60008181526001600160a01b038781166004528616602452604485905291602083606481808c5af19250600160005114831661249857838315161561248b573d6000823e3d81fd5b6000883b113d1516831692505b60405250600060605295945050505050565b600061243183836b033b2e3c9fd0803ce800000061271b565b60008160ff166012036124d7575081611d8f565b60128260ff16101561250a576124ee826012612ce0565b6124f990600a612ddd565b6125039084612cc9565b9050611d8f565b612515601283612ce0565b61252090600a612ddd565b6124319084612e02565b60405163b3596f0760e01b81526001600160a01b03828116600483015260009182917f0000000000000000000000000000000000000000000000000000000000000000169063b3596f0790602401602060405180830381865afa158015612595573d6000803e3d6000fd5b505050506040513d601f19601f820116820180604052508101906125b99190612be2565b905060007f00000000000000000000000000000000000000000000000000000000000000006001600160a01b031663f1a640f86040518163ffffffff1660e01b8152600401602060405180830381865afa15801561261b573d6000803e3d6000fd5b505050506040513d601f19601f8201168201806040525081019061263f9190612e24565b90508060ff16601203612653575092915050565b60128160ff16101561267f5761266a816012612ce0565b61267590600a612ddd565b61198a9083612cc9565b61268a601282612ce0565b61269590600a612ddd565b61198a9083612e02565b60006124318383670de0b6b3a764000061271b565b6000612431838361271061271b565b6001600160a01b0382166000908152600260205260408120816126e58561252a565b905060006126f3858361241c565b9050611d89818460020160149054906101000a900460ff1661283a565b600061243183612710845b60008160000361275b5760405162461bcd60e51b815260206004820152600b60248201526a4449565f42595f5a45524f60a81b6044820152606401610391565b600080600019858709858702925082811083820303915050806000036127945783828161278a5761278a612dec565b0492505050612431565b8084116127d25760405162461bcd60e51b815260206004820152600c60248201526b444956204f564552464c4f5760a01b6044820152606401610391565b600084868809600260036001881981018916988990049182028318808302840302808302840302808302840302808302840302808302840302918202909203026000889003889004909101858311909403939093029303949094049190911702949350505050565b60008160ff1660120361284e575081611d8f565b60128260ff16101561287a57612865826012612ce0565b61287090600a612ddd565b6125039084612e02565b612885601283612ce0565b61289090600a612ddd565b6124319084612cc9565b80356001600160a01b03811681146128b157600080fd5b919050565b6000602082840312156128c857600080fd5b6124318261289a565b6000602082840312156128e357600080fd5b5035919050565b600080604083850312156128fd57600080fd5b6129068361289a565b946020939093013593505050565b6000806040838503121561292757600080fd5b6129308361289a565b915061293e6020840161289a565b90509250929050565b6001600160a01b038d811682528c16602082015260ff8b1660408201528915156060820152881515608082015261ffff88811660a0830152871660c0820152610180810161ffff871660e083015261ffff861661010083015284610120830152836101408301526129c261016083018464ffffffffff169052565b9d9c50505050505050505050505050565b6020808252825182820181905260009190848201906040850190845b81811015612a145783516001600160a01b0316835292840192918401916001016129ef565b50909695505050505050565b60008060008060808587031215612a3657600080fd5b612a3f8561289a565b9350612a4d6020860161289a565b9250612a5b6040860161289a565b9396929550929360600135925050565b60ff8116811461170d57600080fd5b803561ffff811681146128b157600080fd5b60008060008060008060008060006101208a8c031215612aab57600080fd5b612ab48a61289a565b9850612ac260208b0161289a565b9750612ad060408b0161289a565b9650612ade60608b0161289a565b955060808a0135612aee81612a6b565b9450612afc60a08b01612a7a565b9350612b0a60c08b01612a7a565b9250612b1860e08b01612a7a565b9150612b276101008b01612a7a565b90509295985092959850929598565b634e487b7160e01b600052603260045260246000fd5b6020808252600e908201526d1253959053125117d05353d5539560921b604082015260600190565b602080825260119082015270149154d154959157d393d517d193d55391607a1b604082015260600190565b60208082526010908201526f524553455256455f494e41435449564560801b604082015260600190565b6001600160a01b03929092168252602082015260400190565b600060208284031215612bf457600080fd5b5051919050565b6001600160a01b039390931683526020830191909152604082015260600190565b6020808252600b908201526a1095549397d1905253115160aa1b604082015260600190565b6020808252600e908201526d2922a9a2a92b22afa32927ad22a760911b604082015260600190565b634e487b7160e01b600052601160045260246000fd5b80820180821115611d8f57611d8f612c69565b81810381811115611d8f57611d8f612c69565b60008060408385031215612cb857600080fd5b505080516020909101519092909150565b8082028115828204841417611d8f57611d8f612c69565b60ff8281168282160390811115611d8f57611d8f612c69565b600181815b80851115612d34578160001904821115612d1a57612d1a612c69565b80851615612d2757918102915b93841c9390800290612cfe565b509250929050565b600082612d4b57506001611d8f565b81612d5857506000611d8f565b8160018114612d6e5760028114612d7857612d94565b6001915050611d8f565b60ff841115612d8957612d89612c69565b50506001821b611d8f565b5060208310610133831016604e8410600b8410161715612db7575081810a611d8f565b612dc18383612cf9565b8060001904821115612dd557612dd5612c69565b029392505050565b600061243160ff841683612d3c565b634e487b7160e01b600052601260045260246000fd5b600082612e1f57634e487b7160e01b600052601260045260246000fd5b500490565b600060208284031215612e3657600080fd5b815161243181612a6b56fea2646970667358221220a5ed813e6f1e1f388f150a7a75a6d18beb62810689085aaa72e30bf926b289d664736f6c63430008180033",
  "linkReferences": {},
  "deployedLinkReferences": {}
}