{
  "_format": "hh-sol-artifact-1",
  "contractName": "MockPriceOracle",
  "sourceName": "contracts/oracle/MockPriceOracle.sol",
  "abi": [
    {
      "inputs": [
        {
          "internalType": "address",
          "name": "owner_",
          "type": "address"
        }
      ],
      "stateMutability": "nonpayable",
      "type": "constructor"
    },
    {
      "inputs": [
        {
          "internalType": "address",
          "name": "owner",
          "type": "address"
        }
      ],
      "name": "OwnableInvalidOwner",
      "type": "error"
    },
    {
      "inputs": [
        {
          "internalType": "address",
          "name": "account",
          "type": "address"
        }
      ],
      "name": "OwnableUnauthorizedAccount",
      "type": "error"
    },
    {
      "anonymous": false,
      "inputs": [
        {
          "indexed": true,
          "internalType": "address",
          "name": "previousOwner",
          "type": "address"
        },
        {
          "indexed": true,
          "internalType": "address",
          "name": "newOwner",
          "type": "address"
        }
      ],
      "name": "OwnershipTransferred",
      "type": "event"
    },
    {
      "anonymous": false,
      "inputs": [
        {
          "indexed": true,
          "internalType": "address",
          "name": "asset",
          "type": "address"
        },
        {
          "indexed": false,
          "internalType": "uint256",
          "name": "price",
          "type": "uint256"
        }
      ],
      "name": "PriceUpdated",
      "type": "event"
    },
    {
      "inputs": [],
      "name": "PRICE_DECIMALS",
      "outputs": [
        {
          "internalType": "uint8",
          "name": "",
          "type": "uint8"
        }
      ],
      "stateMutability": "view",
      "type": "function"
    },
    {
      "inputs": [
        {
          "internalType": "address",
          "name": "asset",
          "type": "address"
        }
      ],
      "name": "getAssetPrice",
      "outputs": [
        {
          "internalType": "uint256",
          "name": "",
          "type": "uint256"
        }
      ],
      "stateMutability": "view",
      "type": "function"
    },
    {
      "inputs": [],
      "name": "owner",
      "outputs": [
        {
          "internalType": "address",
          "name": "",
          "type": "address"
        }
      ],
      "stateMutability": "view",
      "type": "function"
    },
    {
      "inputs": [
        {
          "internalType": "address",
          "name": "",
          "type": "address"
        }
      ],
      "name": "prices",
      "outputs": [
        {
          "internalType": "uint256",
          "name": "",
          "type": "uint256"
        }
      ],
      "stateMutability": "view",
      "type": "function"
    },
    {
      "inputs": [],
      "name": "renounceOwnership",
      "outputs": [],
      "stateMutability": "nonpayable",
      "type": "function"
    },
    {
      "inputs": [
        {
          "internalType": "address",
          "name": "asset",
          "type": "address"
        },
        {
          "internalType": "uint256",
          "name": "price",
          "type": "uint256"
        }
      ],
      "name": "setPrice",
      "outputs": [],
      "stateMutability": "nonpayable",
      "type": "function"
    },
    {
      "inputs": [
        {
          "internalType": "address",
          "name": "newOwner",
          "type": "address"
        }
      ],
      "name": "transferOwnership",
      "outputs": [],
      "stateMutability": "nonpayable",
      "type": "function"
    }
  ],
  "bytecode": "0x608060405234801561001057600080fd5b506040516104d83803806104d883398101604081905261002f916100be565b806001600160a01b03811661005e57604051631e4fbdf760e01b81526000600482015260240160405180910390fd5b6100678161006e565b50506100ee565b600080546001600160a01b038381166001600160a01b0319831681178455604051919092169283917f8be0079c531659141344cd1fd0a4f28419497f9722a3daafe3b4186f6b6457e09190a35050565b6000602082840312156100d057600080fd5b81516001600160a01b03811681146100e757600080fd5b9392505050565b6103db806100fd6000396000f3fe608060405234801561001057600080fd5b506004361061007c5760003560e01c8063b3596f071161005b578063b3596f07146100be578063cfed246b146100df578063f1a640f8146100ff578063f2fde38b1461011957600080fd5b8062e4768b14610081578063715018a6146100965780638da5cb5b1461009e575b600080fd5b61009461008f366004610359565b61012c565b005b610094610212565b6000546040516001600160a01b0390911681526020015b60405180910390f35b6100d16100cc366004610383565b610226565b6040519081526020016100b5565b6100d16100ed366004610383565b60016020526000908152604090205481565b610107600881565b60405160ff90911681526020016100b5565b610094610127366004610383565b610282565b6101346102c0565b6001600160a01b03821661017c5760405162461bcd60e51b815260206004820152600a60248201526941535345545f5a45524f60b01b60448201526064015b60405180910390fd5b600081116101b95760405162461bcd60e51b815260206004820152600a60248201526950524943455f5a45524f60b01b6044820152606401610173565b6001600160a01b03821660008181526001602052604090819020839055517f0d86730737b142fc160892fa8a0f2db687a92a0e294d1ad70624cf5acef03b84906102069084815260200190565b60405180910390a25050565b61021a6102c0565b61022460006102ed565b565b6001600160a01b0381166000908152600160205260408120548061027c5760405162461bcd60e51b815260206004820152600d60248201526c14149250d157d393d517d4d155609a1b6044820152606401610173565b92915050565b61028a6102c0565b6001600160a01b0381166102b457604051631e4fbdf760e01b815260006004820152602401610173565b6102bd816102ed565b50565b6000546001600160a01b031633146102245760405163118cdaa760e01b8152336004820152602401610173565b600080546001600160a01b038381166001600160a01b0319831681178455604051919092169283917f8be0079c531659141344cd1fd0a4f28419497f9722a3daafe3b4186f6b6457e09190a35050565b80356001600160a01b038116811461035457600080fd5b919050565b6000806040838503121561036c57600080fd5b6103758361033d565b946020939093013593505050565b60006020828403121561039557600080fd5b61039e8261033d565b939250505056fea2646970667358221220c082e9dbafacd513b84c365e1f80d2bfa04b4ff00865ee7e61163c90c3c31ecf64736f6c63430008180033",
  "linkReferences": {},
  "deployedLinkReferences": {}
}