{
  "_format": "hh-sol-artifact-1",
  "contractName": "PriceOracle",
  "sourceName": "contracts/oracle/PriceOracle.sol",
  "abi": [
    {
      "inputs": [],
      "stateMutability": "nonpayable",
      "type": "constructor"
    },
    {
      "inputs": [
        {
          "internalType": "address",
          "name": "owner",
          "type": "address"
        }
      ],
      "name": "OwnableInvalidOwner",
      "type": "error"
    },
    {
      "inputs": [
        {
          "internalType": "address",
          "name": "account",
          "type": "address"
        }
      ],
      "name": "OwnableUnauthorizedAccount",
      "type": "error"
    },
    {
      "anonymous": false,
      "inputs": [
        {
          "indexed": false,
          "internalType": "uint256",
          "name": "oldMaxPriceAge",
          "type": "uint256"
        },
        {
          "indexed": false,
          "internalType": "uint256",
          "name": "newMaxPriceAge",
          "type": "uint256"
        }
      ],
      "name": "MaxPriceAgeUpdated",
      "type": "event"
    },
    {
      "anonymous": false,
      "inputs": [
        {
          "indexed": true,
          "internalType": "address",
          "name": "previousOwner",
          "type": "address"
        },
        {
          "indexed": true,
          "internalType": "address",
          "name": "newOwner",
          "type": "address"
        }
      ],
      "name": "OwnershipTransferred",
      "type": "event"
    },
    {
      "anonymous": false,
      "inputs": [
        {
          "indexed": true,
          "internalType": "address",
          "name": "token",
          "type": "address"
        },
        {
          "indexed": true,
          "internalType": "address",
          "name": "priceFeed",
          "type": "address"
        }
      ],
      "name": "PriceFeedUpdated",
      "type": "event"
    },
    {
      "inputs": [],
      "name": "PRICE_DECIMALS",
      "outputs": [
        {
          "internalType": "uint8",
          "name": "",
          "type": "uint8"
        }
      ],
      "stateMutability": "view",
      "type": "function"
    },
    {
      "inputs": [
        {
          "internalType": "address",
          "name": "token",
          "type": "address"
        }
      ],
      "name": "getAssetPrice",
      "outputs": [
        {
          "internalType": "uint256",
          "name": "",
          "type": "uint256"
        }
      ],
      "stateMutability": "view",
      "type": "function"
    },
    {
      "inputs": [],
      "name": "maxPriceAge",
      "outputs": [
        {
          "internalType": "uint256",
          "name": "",
          "type": "uint256"
        }
      ],
      "stateMutability": "view",
      "type": "function"
    },
    {
      "inputs": [],
      "name": "owner",
      "outputs": [
        {
          "internalType": "address",
          "name": "",
          "type": "address"
        }
      ],
      "stateMutability": "view",
      "type": "function"
    },
    {
      "inputs": [
        {
          "internalType": "address",
          "name": "",
          "type": "address"
        }
      ],
      "name": "priceFeeds",
      "outputs": [
        {
          "internalType": "address",
          "name": "",
          "type": "address"
        }
      ],
      "stateMutability": "view",
      "type": "function"
    },
    {
      "inputs": [],
      "name": "renounceOwnership",
      "outputs": [],
      "stateMutability": "nonpayable",
      "type": "function"
    },
    {
      "inputs": [
        {
          "internalType": "uint256",
          "name": "newMaxPriceAge",
          "type": "uint256"
        }
      ],
      "name": "setMaxPriceAge",
      "outputs": [],
      "stateMutability": "nonpayable",
      "type": "function"
    },
    {
      "inputs": [
        {
          "internalType": "address",
          "name": "token",
          "type": "address"
        },
        {
          "internalType": "address",
          "name": "_priceFeed",
          "type": "address"
        }
      ],
      "name": "setPriceFeed",
      "outputs": [],
      "stateMutability": "nonpayable",
      "type": "function"
    },
    {
      "inputs": [
        {
          "internalType": "address",
          "name": "newOwner",
          "type": "address"
        }
      ],
      "name": "transferOwnership",
      "outputs": [],
      "stateMutability": "nonpayable",
      "type": "function"
    }
  ],
  "bytecode": "0x60806040526202a30060025534801561001757600080fd5b50338061003e57604051631e4fbdf760e01b81526000600482015260240160405180910390fd5b6100478161004d565b5061009d565b600080546001600160a01b038381166001600160a01b0319831681178455604051919092169283917f8be0079c531659141344cd1fd0a4f28419497f9722a3daafe3b4186f6b6457e09190a35050565b610b57806100ac6000396000f3fe608060405234801561001057600080fd5b50600436106100935760003560e01c80638da5cb5b116100665780638da5cb5b146100e45780639dcb511a14610109578063b3596f0714610132578063f1a640f814610145578063f2fde38b1461015f57600080fd5b80631584410a1461009857806356447ce8146100b4578063715018a6146100c957806376e11286146100d1575b600080fd5b6100a160025481565b6040519081526020015b60405180910390f35b6100c76100c236600461085a565b610172565b005b6100c76101bb565b6100c76100df36600461088f565b6101cf565b6000546001600160a01b03165b6040516001600160a01b0390911681526020016100ab565b6100f16101173660046108c2565b6001602052600090815260409020546001600160a01b031681565b6100a16101403660046108c2565b6103ee565b61014d600881565b60405160ff90911681526020016100ab565b6100c761016d3660046108c2565b61072e565b61017a61076c565b60025460408051918252602082018390527f23d7699acdcc135096fefb30738c302da5792f78f39d038c1e7d74fd9c646cb2910160405180910390a1600255565b6101c361076c565b6101cd6000610799565b565b6101d761076c565b6001600160a01b0382166102065760405162461bcd60e51b81526004016101fd906108dd565b60405180910390fd5b6001600160a01b03811661026c5760405162461bcd60e51b815260206004820152602760248201527f50726963654f7261636c653a2070726963652066656564206973207a65726f206044820152666164647265737360c81b60648201526084016101fd565b6000816001600160a01b03163b116102d05760405162461bcd60e51b815260206004820152602160248201527f50726963654f7261636c653a2066656564206973206e6f7420636f6e747261636044820152601d60fa1b60648201526084016101fd565b6000816001600160a01b031663313ce5676040518163ffffffff1660e01b8152600401602060405180830381865afa158015610310573d6000803e3d6000fd5b505050506040513d601f19601f82011682018060405250810190610334919061091f565b905060128160ff1611156103965760405162461bcd60e51b815260206004820152602360248201527f50726963654f7261636c653a206665656420646563696d616c7320746f6f20686044820152620d2ced60eb1b60648201526084016101fd565b6001600160a01b0383811660008181526001602052604080822080546001600160a01b0319169487169485179055517fa8abe0398416476db5b05737cd4da3b3cbde5012d978a6a6c3fd49d3217535369190a3505050565b60006001600160a01b0382166104165760405162461bcd60e51b81526004016101fd906108dd565b6001600160a01b0380831660009081526001602052604090205416806104905760405162461bcd60e51b815260206004820152602960248201527f50726963654f7261636c653a2070726963652066656564206e6f7420736574206044820152683337b9103a37b5b2b760b91b60648201526084016101fd565b6000819050600080826001600160a01b031663feaf968c6040518163ffffffff1660e01b815260040160a060405180830381865afa1580156104d6573d6000803e3d6000fd5b505050506040513d601f19601f820116820180604052508101906104fa9190610963565b50935050925050600082136105515760405162461bcd60e51b815260206004820152601a60248201527f50726963654f7261636c653a20696e76616c696420707269636500000000000060448201526064016101fd565b806000036105a15760405162461bcd60e51b815260206004820152601d60248201527f50726963654f7261636c653a20696e636f6d706c65746520726f756e6400000060448201526064016101fd565b428111156105f15760405162461bcd60e51b815260206004820152601a60248201527f50726963654f7261636c653a206261642074696d657374616d7000000000000060448201526064016101fd565b600254158061060b575060025461060882426109c9565b11155b6106575760405162461bcd60e51b815260206004820152601860248201527f50726963654f7261636c653a207374616c65207072696365000000000000000060448201526064016101fd565b60006106c483856001600160a01b031663313ce5676040518163ffffffff1660e01b8152600401602060405180830381865afa15801561069b573d6000803e3d6000fd5b505050506040513d601f19601f820116820180604052508101906106bf919061091f565b6107e9565b9050600081116107245760405162461bcd60e51b815260206004820152602560248201527f50726963654f7261636c653a206e6f726d616c697a6564207072696365206973604482015264207a65726f60d81b60648201526084016101fd565b9695505050505050565b61073661076c565b6001600160a01b03811661076057604051631e4fbdf760e01b8152600060048201526024016101fd565b61076981610799565b50565b6000546001600160a01b031633146101cd5760405163118cdaa760e01b81523360048201526024016101fd565b600080546001600160a01b038381166001600160a01b0319831681178455604051919092169283917f8be0079c531659141344cd1fd0a4f28419497f9722a3daafe3b4186f6b6457e09190a35050565b600060071960ff8316016107fe575081610854565b600860ff83161015610831576108158260086109dc565b61082090600a610ad9565b61082a9084610ae8565b9050610854565b61083c6008836109dc565b61084790600a610ad9565b6108519084610aff565b90505b92915050565b60006020828403121561086c57600080fd5b5035919050565b80356001600160a01b038116811461088a57600080fd5b919050565b600080604083850312156108a257600080fd5b6108ab83610873565b91506108b960208401610873565b90509250929050565b6000602082840312156108d457600080fd5b61085182610873565b60208082526022908201527f50726963654f7261636c653a20746f6b656e206973207a65726f206164647265604082015261737360f01b606082015260800190565b60006020828403121561093157600080fd5b815160ff8116811461094257600080fd5b9392505050565b805169ffffffffffffffffffff8116811461088a57600080fd5b600080600080600060a0868803121561097b57600080fd5b61098486610949565b94506020860151935060408601519250606086015191506109a760808701610949565b90509295509295909350565b634e487b7160e01b600052601160045260246000fd5b81810381811115610854576108546109b3565b60ff8281168282160390811115610854576108546109b3565b600181815b80851115610a30578160001904821115610a1657610a166109b3565b80851615610a2357918102915b93841c93908002906109fa565b509250929050565b600082610a4757506001610854565b81610a5457506000610854565b8160018114610a6a5760028114610a7457610a90565b6001915050610854565b60ff841115610a8557610a856109b3565b50506001821b610854565b5060208310610133831016604e8410600b8410161715610ab3575081810a610854565b610abd83836109f5565b8060001904821115610ad157610ad16109b3565b029392505050565b600061085160ff841683610a38565b8082028115828204841417610854576108546109b3565b600082610b1c57634e487b7160e01b600052601260045260246000fd5b50049056fea2646970667358221220b84e68509111e401757cdbd35dad6d6c7930950539a3b3b83a0922c6af160a9464736f6c63430008180033",
  "linkReferences": {},
  "deployedLinkReferences": {}
}