{
  "_format": "hh-sol-artifact-1",
  "contractName": "VariableDebtToken",
  "sourceName": "contracts/tokens/VariableDebtToken.sol",
  "abi": [
    {
      "inputs": [
        {
          "internalType": "address",
          "name": "pool",
          "type": "address"
        },
        {
          "internalType": "address",
          "name": "underlyingAsset",
          "type": "address"
        },
        {
          "internalType": "uint8",
          "name": "decimals_",
          "type": "uint8"
        }
      ],
      "stateMutability": "nonpayable",
      "type": "constructor"
    },
    {
      "inputs": [],
      "name": "POOL",
      "outputs": [
        {
          "internalType": "address",
          "name": "",
          "type": "address"
        }
      ],
      "stateMutability": "view",
      "type": "function"
    },
    {
      "inputs": [],
      "name": "UNDERLYING_ASSET",
      "outputs": [
        {
          "internalType": "address",
          "name": "",
          "type": "address"
        }
      ],
      "stateMutability": "view",
      "type": "function"
    },
    {
      "inputs": [
        {
          "internalType": "address",
          "name": "user",
          "type": "address"
        },
        {
          "internalType": "uint256",
          "name": "borrowIndexRay",
          "type": "uint256"
        }
      ],
      "name": "balanceOfWithIndex",
      "outputs": [
        {
          "internalType": "uint256",
          "name": "",
          "type": "uint256"
        }
      ],
      "stateMutability": "view",
      "type": "function"
    },
    {
      "inputs": [
        {
          "internalType": "address",
          "name": "user",
          "type": "address"
        },
        {
          "internalType": "uint256",
          "name": "amount",
          "type": "uint256"
        },
        {
          "internalType": "uint256",
          "name": "borrowIndexRay",
          "type": "uint256"
        }
      ],
      "name": "burn",
      "outputs": [
        {
          "internalType": "uint256",
          "name": "scaledAmount",
          "type": "uint256"
        }
      ],
      "stateMutability": "nonpayable",
      "type": "function"
    },
    {
      "inputs": [],
      "name": "decimals",
      "outputs": [
        {
          "internalType": "uint8",
          "name": "",
          "type": "uint8"
        }
      ],
      "stateMutability": "view",
      "type": "function"
    },
    {
      "inputs": [
        {
          "internalType": "address",
          "name": "user",
          "type": "address"
        },
        {
          "internalType": "uint256",
          "name": "amount",
          "type": "uint256"
        },
        {
          "internalType": "uint256",
          "name": "borrowIndexRay",
          "type": "uint256"
        }
      ],
      "name": "mint",
      "outputs": [
        {
          "internalType": "uint256",
          "name": "scaledAmount",
          "type": "uint256"
        }
      ],
      "stateMutability": "nonpayable",
      "type": "function"
    },
    {
      "inputs": [
        {
          "internalType": "address",
          "name": "user",
          "type": "address"
        }
      ],
      "name": "scaledBalanceOf",
      "outputs": [
        {
          "internalType": "uint256",
          "name": "",
          "type": "uint256"
        }
      ],
      "stateMutability": "view",
      "type": "function"
    },
    {
      "inputs": [],
      "name": "scaledTotalSupply",
      "outputs": [
        {
          "internalType": "uint256",
          "name": "",
          "type": "uint256"
        }
      ],
      "stateMutability": "view",
      "type": "function"
    },
    {
      "inputs": [
        {
          "internalType": "uint256",
          "name": "borrowIndexRay",
          "type": "uint256"
        }
      ],
      "name": "totalSupplyWithIndex",
      "outputs": [
        {
          "internalType": "uint256",
          "name": "",
          "type": "uint256"
        }
      ],
      "stateMutability": "view",
      "type": "function"
    }
  ],
  "bytecode": "0x60e060405234801561001057600080fd5b50604051610a3d380380610a3d83398101604081905261002f91610140565b6001600160a01b0383166100765760405162461bcd60e51b8152602060048201526009602482015268504f4f4c5f5a45524f60b81b60448201526064015b60405180910390fd5b6001600160a01b0382166100be5760405162461bcd60e51b815260206004820152600f60248201526e554e4445524c59494e475f5a45524f60881b604482015260640161006d565b60128160ff1611156101065760405162461bcd60e51b81526020600482015260116024820152700888a86929a8298a6bea89e9ebe90928e9607b1b604482015260640161006d565b6001600160a01b03928316608052911660a05260ff1660c05261018d565b80516001600160a01b038116811461013b57600080fd5b919050565b60008060006060848603121561015557600080fd5b61015e84610124565b925061016c60208501610124565b9150604084015160ff8116811461018257600080fd5b809150509250925092565b60805160a05160c0516108746101c9600039600060ee0152600061018a01526000818161011d015281816101cc01526103ac01526108746000f3fe608060405234801561001057600080fd5b50600436106100935760003560e01c80638da78feb116100665780638da78feb14610157578063b1bf962d1461016a578063de9348b014610172578063e602539314610185578063f5298aca146101ac57600080fd5b8063156e29f6146100985780631da24f3e146100be578063313ce567146100e75780637535d24614610118575b600080fd5b6100ab6100a636600461075b565b6101bf565b6040519081526020015b60405180910390f35b6100ab6100cc36600461078e565b6001600160a01b031660009081526020819052604090205490565b60405160ff7f00000000000000000000000000000000000000000000000000000000000000001681526020016100b5565b61013f7f000000000000000000000000000000000000000000000000000000000000000081565b6040516001600160a01b0390911681526020016100b5565b6100ab6101653660046107a9565b61035f565b6001546100ab565b6100ab6101803660046107c2565b610375565b61013f7f000000000000000000000000000000000000000000000000000000000000000081565b6100ab6101ba36600461075b565b61039f565b6000336001600160a01b037f0000000000000000000000000000000000000000000000000000000000000000161461022a5760405162461bcd60e51b815260206004820152600960248201526813d3931657d413d3d360ba1b60448201526064015b60405180910390fd5b6001600160a01b03841661026c5760405162461bcd60e51b8152602060048201526009602482015268555345525f5a45524f60b81b6044820152606401610221565b600083116102ad5760405162461bcd60e51b815260206004820152600e60248201526d1253959053125117d05353d5539560921b6044820152606401610221565b6b033b2e3c9fd0803ce80000008210156102f95760405162461bcd60e51b815260206004820152600d60248201526c494e4445585f544f4f5f4c4f5760981b6044820152606401610221565b61030383836105f2565b905080600080866001600160a01b03166001600160a01b0316815260200190815260200160002060008282546103399190610802565b9250508190555080600160008282546103529190610802565b9091555090949350505050565b60015460009061036f908361060b565b92915050565b6001600160a01b038216600090815260208190526040812054610398908361060b565b9392505050565b6000336001600160a01b037f000000000000000000000000000000000000000000000000000000000000000016146104055760405162461bcd60e51b815260206004820152600960248201526813d3931657d413d3d360ba1b6044820152606401610221565b6001600160a01b0384166104475760405162461bcd60e51b8152602060048201526009602482015268555345525f5a45524f60b81b6044820152606401610221565b600083116104885760405162461bcd60e51b815260206004820152600e60248201526d1253959053125117d05353d5539560921b6044820152606401610221565b6b033b2e3c9fd0803ce80000008210156104d45760405162461bcd60e51b815260206004820152600d60248201526c494e4445585f544f4f5f4c4f5760981b6044820152606401610221565b6001600160a01b038416600090815260208190526040902054806105315760405162461bcd60e51b81526020600482015260146024820152734255524e5f455843454544535f42414c414e434560601b6044820152606401610221565b600061053d828561060b565b9050808511156105865760405162461bcd60e51b81526020600482015260146024820152734255524e5f455843454544535f42414c414e434560601b6044820152606401610221565b808503610595578192506105a2565b61059f85856105f2565b92505b6001600160a01b038616600090815260208190526040812080548592906105ca908490610815565b9250508190555082600160008282546105e39190610815565b90915550929695505050505050565b6000610398836b033b2e3c9fd0803ce800000084610620565b600061039883836b033b2e3c9fd0803ce80000005b6000816000036106605760405162461bcd60e51b815260206004820152600b60248201526a4449565f42595f5a45524f60a81b6044820152606401610221565b600080600019858709858702925082811083820303915050806000036106995783828161068f5761068f610828565b0492505050610398565b8084116106d75760405162461bcd60e51b815260206004820152600c60248201526b444956204f564552464c4f5760a01b6044820152606401610221565b600084868809600260036001881981018916988990049182028318808302840302808302840302808302840302808302840302808302840302918202909203026000889003889004909101858311909403939093029303949094049190911702949350505050565b80356001600160a01b038116811461075657600080fd5b919050565b60008060006060848603121561077057600080fd5b6107798461073f565b95602085013595506040909401359392505050565b6000602082840312156107a057600080fd5b6103988261073f565b6000602082840312156107bb57600080fd5b5035919050565b600080604083850312156107d557600080fd5b6107de8361073f565b946020939093013593505050565b634e487b7160e01b600052601160045260246000fd5b8082018082111561036f5761036f6107ec565b8181038181111561036f5761036f6107ec565b634e487b7160e01b600052601260045260246000fdfea264697066735822122001583dcdc673e4b16eacbcf49f1c49435a2ab858bba5b50270859698aa5760fe64736f6c63430008180033",
  "linkReferences": {},
  "deployedLinkReferences": {}
}