{
  "_format": "hh-sol-artifact-1",
  "contractName": "VariableDebtToken",
  "sourceName": "contracts/tokens/VariableDebtToken.sol",
  "abi": [
    {
      "inputs": [
        {
          "internalType": "address",
          "name": "pool",
          "type": "address"
        },
        {
          "internalType": "address",
          "name": "underlyingAsset",
          "type": "address"
        },
        {
          "internalType": "uint8",
          "name": "decimals_",
          "type": "uint8"
        }
      ],
      "stateMutability": "nonpayable",
      "type": "constructor"
    },
    {
      "inputs": [],
      "name": "POOL",
      "outputs": [
        {
          "internalType": "address",
          "name": "",
          "type": "address"
        }
      ],
      "stateMutability": "view",
      "type": "function"
    },
    {
      "inputs": [],
      "name": "UNDERLYING_ASSET",
      "outputs": [
        {
          "internalType": "address",
          "name": "",
          "type": "address"
        }
      ],
      "stateMutability": "view",
      "type": "function"
    },
    {
      "inputs": [
        {
          "internalType": "address",
          "name": "user",
          "type": "address"
        },
        {
          "internalType": "uint256",
          "name": "borrowIndexRay",
          "type": "uint256"
        }
      ],
      "name": "balanceOfWithIndex",
      "outputs": [
        {
          "internalType": "uint256",
          "name": "",
          "type": "uint256"
        }
      ],
      "stateMutability": "view",
      "type": "function"
    },
    {
      "inputs": [
        {
          "internalType": "address",
          "name": "user",
          "type": "address"
        },
        {
          "internalType": "uint256",
          "name": "amount",
          "type": "uint256"
        },
        {
          "internalType": "uint256",
          "name": "borrowIndexRay",
          "type": "uint256"
        }
      ],
      "name": "burn",
      "outputs": [
        {
          "internalType": "uint256",
          "name": "scaledAmount",
          "type": "uint256"
        }
      ],
      "stateMutability": "nonpayable",
      "type": "function"
    },
    {
      "inputs": [],
      "name": "decimals",
      "outputs": [
        {
          "internalType": "uint8",
          "name": "",
          "type": "uint8"
        }
      ],
      "stateMutability": "view",
      "type": "function"
    },
    {
      "inputs": [
        {
          "internalType": "address",
          "name": "user",
          "type": "address"
        },
        {
          "internalType": "uint256",
          "name": "amount",
          "type": "uint256"
        },
        {
          "internalType": "uint256",
          "name": "borrowIndexRay",
          "type": "uint256"
        }
      ],
      "name": "mint",
      "outputs": [
        {
          "internalType": "uint256",
          "name": "scaledAmount",
          "type": "uint256"
        }
      ],
      "stateMutability": "nonpayable",
      "type": "function"
    },
    {
      "inputs": [
        {
          "internalType": "address",
          "name": "user",
          "type": "address"
        }
      ],
      "name": "scaledBalanceOf",
      "outputs": [
        {
          "internalType": "uint256",
          "name": "",
          "type": "uint256"
        }
      ],
      "stateMutability": "view",
      "type": "function"
    },
    {
      "inputs": [],
      "name": "scaledTotalSupply",
      "outputs": [
        {
          "internalType": "uint256",
          "name": "",
          "type": "uint256"
        }
      ],
      "stateMutability": "view",
      "type": "function"
    },
    {
      "inputs": [
        {
          "internalType": "uint256",
          "name": "borrowIndexRay",
          "type": "uint256"
        }
      ],
      "name": "totalSupplyWithIndex",
      "outputs": [
        {
          "internalType": "uint256",
          "name": "",
          "type": "uint256"
        }
      ],
      "stateMutability": "view",
      "type": "function"
    }
  ],
  "bytecode": "0x60e060405234801561001057600080fd5b506040516109cc3803806109cc83398101604081905261002f91610140565b6001600160a01b0383166100765760405162461bcd60e51b8152602060048201526009602482015268504f4f4c5f5a45524f60b81b60448201526064015b60405180910390fd5b6001600160a01b0382166100be5760405162461bcd60e51b815260206004820152600f60248201526e554e4445524c59494e475f5a45524f60881b604482015260640161006d565b60128160ff1611156101065760405162461bcd60e51b81526020600482015260116024820152700888a86929a8298a6bea89e9ebe90928e9607b1b604482015260640161006d565b6001600160a01b03928316608052911660a05260ff1660c05261018d565b80516001600160a01b038116811461013b57600080fd5b919050565b60008060006060848603121561015557600080fd5b61015e84610124565b925061016c60208501610124565b9150604084015160ff8116811461018257600080fd5b809150509250925092565b60805160a05160c0516108036101c9600039600060ee0152600061018a01526000818161011d015281816101cc01526103ac01526108036000f3fe608060405234801561001057600080fd5b50600436106100935760003560e01c80638da78feb116100665780638da78feb14610157578063b1bf962d1461016a578063de9348b014610172578063e602539314610185578063f5298aca146101ac57600080fd5b8063156e29f6146100985780631da24f3e146100be578063313ce567146100e75780637535d24614610118575b600080fd5b6100ab6100a63660046106ea565b6101bf565b6040519081526020015b60405180910390f35b6100ab6100cc36600461071d565b6001600160a01b031660009081526020819052604090205490565b60405160ff7f00000000000000000000000000000000000000000000000000000000000000001681526020016100b5565b61013f7f000000000000000000000000000000000000000000000000000000000000000081565b6040516001600160a01b0390911681526020016100b5565b6100ab610165366004610738565b61035f565b6001546100ab565b6100ab610180366004610751565b610375565b61013f7f000000000000000000000000000000000000000000000000000000000000000081565b6100ab6101ba3660046106ea565b61039f565b6000336001600160a01b037f0000000000000000000000000000000000000000000000000000000000000000161461022a5760405162461bcd60e51b815260206004820152600960248201526813d3931657d413d3d360ba1b60448201526064015b60405180910390fd5b6001600160a01b03841661026c5760405162461bcd60e51b8152602060048201526009602482015268555345525f5a45524f60b81b6044820152606401610221565b600083116102ad5760405162461bcd60e51b815260206004820152600e60248201526d1253959053125117d05353d5539560921b6044820152606401610221565b6b033b2e3c9fd0803ce80000008210156102f95760405162461bcd60e51b815260206004820152600d60248201526c494e4445585f544f4f5f4c4f5760981b6044820152606401610221565b6103038383610581565b905080600080866001600160a01b03166001600160a01b0316815260200190815260200160002060008282546103399190610791565b9250508190555080600160008282546103529190610791565b9091555090949350505050565b60015460009061036f908361059a565b92915050565b6001600160a01b038216600090815260208190526040812054610398908361059a565b9392505050565b6000336001600160a01b037f000000000000000000000000000000000000000000000000000000000000000016146104055760405162461bcd60e51b815260206004820152600960248201526813d3931657d413d3d360ba1b6044820152606401610221565b6001600160a01b0384166104475760405162461bcd60e51b8152602060048201526009602482015268555345525f5a45524f60b81b6044820152606401610221565b600083116104885760405162461bcd60e51b815260206004820152600e60248201526d1253959053125117d05353d5539560921b6044820152606401610221565b6b033b2e3c9fd0803ce80000008210156104d45760405162461bcd60e51b815260206004820152600d60248201526c494e4445585f544f4f5f4c4f5760981b6044820152606401610221565b6104de8383610581565b6001600160a01b0385166000908152602081905260409020549091508111156105405760405162461bcd60e51b81526020600482015260146024820152734255524e5f455843454544535f42414c414e434560601b6044820152606401610221565b6001600160a01b038416600090815260208190526040812080548392906105689084906107a4565b92505081905550806001600082825461035291906107a4565b6000610398836b033b2e3c9fd0803ce8000000846105af565b600061039883836b033b2e3c9fd0803ce80000005b6000816000036105ef5760405162461bcd60e51b815260206004820152600b60248201526a4449565f42595f5a45524f60a81b6044820152606401610221565b600080600019858709858702925082811083820303915050806000036106285783828161061e5761061e6107b7565b0492505050610398565b8084116106665760405162461bcd60e51b815260206004820152600c60248201526b444956204f564552464c4f5760a01b6044820152606401610221565b600084868809600260036001881981018916988990049182028318808302840302808302840302808302840302808302840302808302840302918202909203026000889003889004909101858311909403939093029303949094049190911702949350505050565b80356001600160a01b03811681146106e557600080fd5b919050565b6000806000606084860312156106ff57600080fd5b610708846106ce565b95602085013595506040909401359392505050565b60006020828403121561072f57600080fd5b610398826106ce565b60006020828403121561074a57600080fd5b5035919050565b6000806040838503121561076457600080fd5b61076d836106ce565b946020939093013593505050565b634e487b7160e01b600052601160045260246000fd5b8082018082111561036f5761036f61077b565b8181038181111561036f5761036f61077b565b634e487b7160e01b600052601260045260246000fdfea26469706673582212204ed5e58e3254ea2d088522915939897d19c71d92c80dfc43a7561d2dc51ec3a764736f6c63430008180033",
  "linkReferences": {},
  "deployedLinkReferences": {}
}